{
  "transactions": [
    {
      "hash": "0x557cad9af211dc17ce6f8bbe7cd56ed68ffb359ef3df43074ac0fc91885a1475",
      "transactionType": "CREATE",
      "contractName": "OPBridgedSuperTokenProxy",
      "contractAddress": "0x5D092435E60Ed191615dF0662277197f1A631124",
      "function": null,
      "arguments": [
        "0x4200000000000000000000000000000000000010",
        "0x3A193aC8FcaCCDa817c174D04081C105154a8441"
      ],
      "transaction": {
        "from": "0x48CA32c738DC2Af6cE8bB33934fF1b59cF8B1831",
        "gas": "0x182d28",
        "value": "0x0",
        "input": "0x60c06040523480156200001157600080fd5b5060405162001698380380620016988339810160408190526200003491620004bb565b6200003f3362000083565b6001600160a01b03808316608052811660a0526200007b8262000066600260001962000509565b62000075600260001962000509565b620000d5565b505062000572565b602080546001600160a01b038381166001600160a01b0319831681179093556040519116919082907f8be0079c531659141344cd1fd0a4f28419497f9722a3daafe3b4186f6b6457e090600090a35050565b620000df62000189565b620000ee600260001962000509565b82118062000109575062000106600260001962000509565b81115b15620001285760405163f596480960e01b815260040160405180910390fd5b620001348383620001ea565b62000140838262000294565b60408051838152602081018390526001600160a01b038516917f93f3bbfe8cfb354ec059175107653f49f6eb479a8622a7d83866ea015435c944910160405180910390a2505050565b6020546001600160a01b03163314620001e85760405162461bcd60e51b815260206004820181905260248201527f4f776e61626c653a2063616c6c6572206973206e6f7420746865206f776e6572604482015260640160405180910390fd5b565b6001600160a01b03821660009081526021602052604081206002015490620002128462000344565b6001600160a01b038516600090815260216020526040902060020184905590506200023f83838362000380565b6001600160a01b0385166000908152602160205260409020600301556200026a620151808462000509565b6001600160a01b039094166000908152602160205260409020600181019490945550504290915550565b6001600160a01b03821660009081526021602052604081206006015490620002bc84620003e2565b6001600160a01b03851660009081526021602052604090206006018490559050620002e983838362000380565b6001600160a01b03851660009081526021602052604090206007015562000314620151808462000509565b6001600160a01b039094166000908152602160205260409020600581019490945550504260049092019190915550565b6001600160a01b03811660009081526021602052604081206003810154600282015482546001909301546200037a939062000416565b92915050565b600080838511620003bd576200039785856200052c565b9050808311620003a9576000620003b5565b620003b581846200052c565b9150620003da565b620003c984866200052c565b9050620003d7818462000542565b91505b509392505050565b6001600160a01b03811660009081526021602052604081206007810154600682015460048301546005909301546200037a93905b838381146200049657426200042f620151808562000542565b116200043d57508262000496565b426200044d620151808562000542565b1115620004965760006200046284426200052c565b9050600062000472848362000558565b6200047e908462000542565b90508581116200048f578062000491565b855b925050505b949350505050565b80516001600160a01b0381168114620004b657600080fd5b919050565b60008060408385031215620004cf57600080fd5b620004da836200049e565b9150620004ea602084016200049e565b90509250929050565b634e487b7160e01b600052601160045260246000fd5b6000826200052757634e487b7160e01b600052601260045260246000fd5b500490565b818103818111156200037a576200037a620004f3565b808201808211156200037a576200037a620004f3565b80820281158282048414176200037a576200037a620004f3565b60805160a0516111006200059860003960006103c3015260006103f601526111006000f3fe6080604052600436106101025760003560e01c80638da5cb5b11610095578063c1eb713711610064578063c1eb7137146102dc578063ced67f0c14610315578063d6c0b2c4146103b4578063e78cea92146103e7578063f2fde38b1461041a57610111565b80638da5cb5b1461024a578063998955d31461027c5780639dc29fac1461029c578063a08d5654146102bc57610111565b80634a0687ef116100d15780634a0687ef146101d5578063651fd268146101f5578063715018a61461021557806375b30be61461022a57610111565b806301ffc9a7146101195780630c05f82c1461014e57806340c10f1914610195578063435350b7146101b557610111565b366101115761010f61043a565b005b61010f61043a565b34801561012557600080fd5b50610139610134366004610d59565b61044c565b60405190151581526020015b60405180910390f35b34801561015a57600080fd5b50610187610169366004610d9f565b6001600160a01b031660009081526021602052604090206002015490565b604051908152602001610145565b3480156101a157600080fd5b5061010f6101b0366004610dbc565b610483565b3480156101c157600080fd5b5061010f6101d0366004610d9f565b610491565b3480156101e157600080fd5b5061010f6101f0366004610d9f565b6104aa565b34801561020157600080fd5b50610187610210366004610d9f565b6105b0565b34801561022157600080fd5b5061010f6105e4565b34801561023657600080fd5b5061010f610245366004610e8b565b6105f6565b34801561025657600080fd5b506020546001600160a01b03165b6040516001600160a01b039091168152602001610145565b34801561028857600080fd5b50610187610297366004610d9f565b610709565b3480156102a857600080fd5b5061010f6102b7366004610dbc565b610740565b3480156102c857600080fd5b5061010f6102d7366004610f1c565b61074a565b3480156102e857600080fd5b506101876102f7366004610d9f565b6001600160a01b031660009081526021602052604090206006015490565b34801561032157600080fd5b506103a6610330366004610d9f565b6021602090815260009182526040918290208251608080820185528254825260018301548285015260028301548286015260038301546060808401919091528551918201865260048401548252600584015494820194909452600683015494810194909452600790910154918301919091529082565b604051610145929190610f51565b3480156103c057600080fd5b507f0000000000000000000000000000000000000000000000000000000000000000610264565b3480156103f357600080fd5b507f0000000000000000000000000000000000000000000000000000000000000000610264565b34801561042657600080fd5b5061010f610435366004610d9f565b6107f2565b61044a610445610868565b610897565b565b60006001600160e01b031982166301ffc9a760e01b148061047d57506001600160e01b0319821663ec4fc8e360e01b145b92915050565b61048d82826108bb565b5050565b6040516366822f6560e11b815260040160405180910390fd5b6001600160a01b0381166105055760405162461bcd60e51b815260206004820152601760248201527f5555505350726f78793a207a65726f206164647265737300000000000000000060448201526064015b60405180910390fd5b600061052f7f360894a13ba1a3210667c828492db98dca3e2076cc3735a920a3ca505d382bbc5490565b6001600160a01b0316146105855760405162461bcd60e51b815260206004820152601e60248201527f5555505350726f78793a20616c726561647920696e697469616c697a6564000060448201526064016104fc565b6105ad817f360894a13ba1a3210667c828492db98dca3e2076cc3735a920a3ca505d382bbc55565b50565b6001600160a01b038116600090815260216020526040812060038101546002820154825460019093015461047d939061098b565b6105ec610a03565b61044a6000610a5d565b604051633504b4d160e21b81523060048201526001600160a01b0386169063d412d34490602401600060405180830381600087803b15801561063757600080fd5b505af115801561064b573d6000803e3d6000fd5b50506040516285fc1360e71b81523092506342fe098091506106799060009060129089908990600401610fe3565b600060405180830381600087803b15801561069357600080fd5b505af11580156106a7573d6000803e3d6000fd5b505060405163c68d428360e01b815230925063c68d428391506106d0908590859060040161102d565b600060405180830381600087803b1580156106ea57600080fd5b505af11580156106fe573d6000803e3d6000fd5b505050505050505050565b6001600160a01b038116600090815260216020526040812060078101546006820154600483015460059093015461047d939061098b565b61048d8282610aaf565b610752610a03565b61075f600260001961106b565b8211806107775750610774600260001961106b565b81115b156107955760405163f596480960e01b815260040160405180910390fd5b61079f8383610bb5565b6107a98382610c59565b60408051838152602081018390526001600160a01b038516917f93f3bbfe8cfb354ec059175107653f49f6eb479a8622a7d83866ea015435c944910160405180910390a2505050565b6107fa610a03565b6001600160a01b03811661085f5760405162461bcd60e51b815260206004820152602660248201527f4f776e61626c653a206e6577206f776e657220697320746865207a65726f206160448201526564647265737360d01b60648201526084016104fc565b6105ad81610a5d565b60006108927f360894a13ba1a3210667c828492db98dca3e2076cc3735a920a3ca505d382bbc5490565b905090565b3660008037600080366000845af43d6000803e8080156108b6573d6000f35b3d6000fd5b3360006108c7826105b0565b9050828110156108ea576040516305b4215560e11b815260040160405180910390fd5b6001600160a01b038216600090815260216020526040902042905561090f838261108d565b6001600160a01b03831660009081526021602052604090819020600301919091555163c68d428360e01b8152309063c68d428390610953908790879060040161102d565b600060405180830381600087803b15801561096d57600080fd5b505af1158015610981573d6000803e3d6000fd5b5050505050505050565b838381146109fb57426109a162015180856110a0565b116109ad5750826109fb565b426109bb62015180856110a0565b11156109fb5760006109cd844261108d565b905060006109db84836110b3565b6109e590846110a0565b90508581116109f457806109f6565b855b925050505b949350505050565b6020546001600160a01b0316331461044a5760405162461bcd60e51b815260206004820181905260248201527f4f776e61626c653a2063616c6c6572206973206e6f7420746865206f776e657260448201526064016104fc565b602080546001600160a01b038381166001600160a01b0319831681179093556040519116919082907f8be0079c531659141344cd1fd0a4f28419497f9722a3daafe3b4186f6b6457e090600090a35050565b336000610abb82610709565b905082811015610ade576040516305b4215560e11b815260040160405180910390fd5b6001600160a01b038216600090815260216020526040902042600490910155610b07838261108d565b6001600160a01b03838116600081815260216020526040908190206007019390935591516320db835f60e11b815290861660048201526024810182905260448101919091526064810184905230906341b706be90608401600060405180830381600087803b158015610b7857600080fd5b505af1158015610b8c573d6000803e3d6000fd5b5050604051639d87674160e01b8152309250639d8767419150610953908590879060040161102d565b6001600160a01b03821660009081526021602052604081206002015490610bdb846105b0565b6001600160a01b03851660009081526021602052604090206002018490559050610c06838383610d03565b6001600160a01b038516600090815260216020526040902060030155610c2f620151808461106b565b6001600160a01b039094166000908152602160205260409020600181019490945550504290915550565b6001600160a01b03821660009081526021602052604081206006015490610c7f84610709565b6001600160a01b03851660009081526021602052604090206006018490559050610caa838383610d03565b6001600160a01b038516600090815260216020526040902060070155610cd3620151808461106b565b6001600160a01b039094166000908152602160205260409020600581019490945550504260049092019190915550565b600080838511610d3857610d17858561108d565b9050808311610d27576000610d31565b610d31818461108d565b9150610d51565b610d42848661108d565b9050610d4e81846110a0565b91505b509392505050565b600060208284031215610d6b57600080fd5b81356001600160e01b031981168114610d8357600080fd5b9392505050565b6001600160a01b03811681146105ad57600080fd5b600060208284031215610db157600080fd5b8135610d8381610d8a565b60008060408385031215610dcf57600080fd5b8235610dda81610d8a565b946020939093013593505050565b634e487b7160e01b600052604160045260246000fd5b600082601f830112610e0f57600080fd5b813567ffffffffffffffff80821115610e2a57610e2a610de8565b604051601f8301601f19908116603f01168101908282118183101715610e5257610e52610de8565b81604052838152866020858801011115610e6b57600080fd5b836020870160208301376000602085830101528094505050505092915050565b600080600080600060a08688031215610ea357600080fd5b8535610eae81610d8a565b9450602086013567ffffffffffffffff80821115610ecb57600080fd5b610ed789838a01610dfe565b95506040880135915080821115610eed57600080fd5b50610efa88828901610dfe565b9350506060860135610f0b81610d8a565b949793965091946080013592915050565b600080600060608486031215610f3157600080fd5b8335610f3c81610d8a565b95602085013595506040909401359392505050565b82518152602080840151818301526040808501518184015260608086015181850152845160808501529184015160a084015283015160c083015282015160e08201526101008101610d83565b6000815180845260005b81811015610fc357602081850181015186830182015201610fa7565b506000602082860101526020601f19601f83011685010191505092915050565b6001600160a01b038516815260ff8416602082015260806040820181905260009061101090830185610f9d565b82810360608401526110228185610f9d565b979650505050505050565b6001600160a01b03929092168252602082015260606040820181905260009082015260800190565b634e487b7160e01b600052601160045260246000fd5b60008261108857634e487b7160e01b600052601260045260246000fd5b500490565b8181038181111561047d5761047d611055565b8082018082111561047d5761047d611055565b808202811582820484141761047d5761047d61105556fea26469706673582212205509841e78d6c741f2f5466c56f2c2b12560fac143868a441cca4c78ab5ed5c864736f6c6343000817003300000000000000000000000042000000000000000000000000000000000000100000000000000000000000003a193ac8fcaccda817c174d04081c105154a8441",
        "nonce": "0x7a",
        "chainId": "0x14a34"
      },
      "additionalContracts": [],
      "isFixedGasLimit": false
    },
    {
      "hash": "0x8f45837320244f56de1ea73099c3c0aeadf28c6f0bafcf2942354b8bd7f3568f",
      "transactionType": "CALL",
      "contractName": "OPBridgedSuperTokenProxy",
      "contractAddress": "0x5D092435E60Ed191615dF0662277197f1A631124",
      "function": "initialize(address,string,string,address,uint256)",
      "arguments": [
        "0x7447E94Dfe3d804a9f46Bf12838d467c912C8F6C",
        "FXXXX Super Token",
        "FXXXXx",
        "0x48CA32c738DC2Af6cE8bB33934fF1b59cF8B1831",
        "0"
      ],
      "transaction": {
        "from": "0x48CA32c738DC2Af6cE8bB33934fF1b59cF8B1831",
        "to": "0x5D092435E60Ed191615dF0662277197f1A631124",
        "gas": "0x4c7af",
        "value": "0x0",
        "input": "0x75b30be60000000000000000000000007447e94dfe3d804a9f46bf12838d467c912c8f6c00000000000000000000000000000000000000000000000000000000000000a000000000000000000000000000000000000000000000000000000000000000e000000000000000000000000048ca32c738dc2af6ce8bb33934ff1b59cf8b183100000000000000000000000000000000000000000000000000000000000000000000000000000000000000000000000000000000000000000000000000000011465858585820537570657220546f6b656e00000000000000000000000000000000000000000000000000000000000000000000000000000000000000000000064658585858780000000000000000000000000000000000000000000000000000",
        "nonce": "0x7b",
        "chainId": "0x14a34"
      },
      "additionalContracts": [],
      "isFixedGasLimit": false
    },
    {
      "hash": "0x9d14e1e7b8b3ca3b2277eee5de1297a926eaecd0977d932655878c959cf7c836",
      "transactionType": "CALL",
      "contractName": "OPBridgedSuperTokenProxy",
      "contractAddress": "0x5D092435E60Ed191615dF0662277197f1A631124",
      "function": "transferOwnership(address)",
      "arguments": [
        "0x48CA32c738DC2Af6cE8bB33934fF1b59cF8B1831"
      ],
      "transaction": {
        "from": "0x48CA32c738DC2Af6cE8bB33934fF1b59cF8B1831",
        "to": "0x5D092435E60Ed191615dF0662277197f1A631124",
        "gas": "0x8b97",
        "value": "0x0",
        "input": "0xf2fde38b00000000000000000000000048ca32c738dc2af6ce8bb33934ff1b59cf8b1831",
        "nonce": "0x7c",
        "chainId": "0x14a34"
      },
      "additionalContracts": [],
      "isFixedGasLimit": false
    }
  ],
  "receipts": [
    {
      "status": "0x1",
      "cumulativeGasUsed": "0x1dc289",
      "logs": [
        {
          "address": "0x5D092435E60Ed191615dF0662277197f1A631124",
          "topics": [
            "0x8be0079c531659141344cd1fd0a4f28419497f9722a3daafe3b4186f6b6457e0",
            "0x0000000000000000000000000000000000000000000000000000000000000000",
            "0x00000000000000000000000048ca32c738dc2af6ce8bb33934ff1b59cf8b1831"
          ],
          "data": "0x",
          "blockHash": "0xcfa16962442a068b9f22de17c3da3858fe8b8775a71a5a8b5f3ed11981c0121b",
          "blockNumber": "0x121aa14",
          "transactionHash": "0x557cad9af211dc17ce6f8bbe7cd56ed68ffb359ef3df43074ac0fc91885a1475",
          "transactionIndex": "0x8",
          "logIndex": "0xe",
          "removed": false
        },
        {
          "address": "0x5D092435E60Ed191615dF0662277197f1A631124",
          "topics": [
            "0x93f3bbfe8cfb354ec059175107653f49f6eb479a8622a7d83866ea015435c944",
            "0x0000000000000000000000004200000000000000000000000000000000000010"
          ],
          "data": "0x7fffffffffffffffffffffffffffffffffffffffffffffffffffffffffffffff7fffffffffffffffffffffffffffffffffffffffffffffffffffffffffffffff",
          "blockHash": "0xcfa16962442a068b9f22de17c3da3858fe8b8775a71a5a8b5f3ed11981c0121b",
          "blockNumber": "0x121aa14",
          "transactionHash": "0x557cad9af211dc17ce6f8bbe7cd56ed68ffb359ef3df43074ac0fc91885a1475",
          "transactionIndex": "0x8",
          "logIndex": "0xf",
          "removed": false
        }
      ],
      "logsBloom": "0x00100000000040000000000004000000000000000001000000800020000000000000000000000000000000000000000000000000000000000000000000000000000000000000000000000000000240000001000000000000000000000000000000000000020000000000000000000800000000000000000000000000000000400200000000000000000000000000000000000000000000000001000000000000000000000000000000000000000000000000000000100000000000000000000000000000000000000000000000000000000000000000040000000000000020000000000000000000000000000000000000000000000010000000000000000000",
      "type": "0x2",
      "transactionHash": "0x557cad9af211dc17ce6f8bbe7cd56ed68ffb359ef3df43074ac0fc91885a1475",
      "transactionIndex": "0x8",
      "blockHash": "0xcfa16962442a068b9f22de17c3da3858fe8b8775a71a5a8b5f3ed11981c0121b",
      "blockNumber": "0x121aa14",
      "gasUsed": "0x129a52",
      "effectiveGasPrice": "0x187bb",
      "from": "0x48CA32c738DC2Af6cE8bB33934fF1b59cF8B1831",
      "to": null,
      "contractAddress": "0x5D092435E60Ed191615dF0662277197f1A631124",
      "l1BaseFeeScalar": "0x44d",
      "l1BlobBaseFee": "0x4b",
      "l1BlobBaseFeeScalar": "0xa118b",
      "l1Fee": "0x59ac4445af",
      "l1GasPrice": "0x1afc497f9",
      "l1GasUsed": "0xbca2"
    },
    {
      "status": "0x1",
      "cumulativeGasUsed": "0x213877",
      "logs": [
        {
          "address": "0x7447E94Dfe3d804a9f46Bf12838d467c912C8F6C",
          "topics": [
            "0x437790724a6e97b75d23117f28cdd4b1beeafc34f7a0911ef256e9334f4369a5",
            "0x0000000000000000000000005d092435e60ed191615df0662277197f1a631124"
          ],
          "data": "0x",
          "blockHash": "0xcfa16962442a068b9f22de17c3da3858fe8b8775a71a5a8b5f3ed11981c0121b",
          "blockNumber": "0x121aa14",
          "transactionHash": "0x8f45837320244f56de1ea73099c3c0aeadf28c6f0bafcf2942354b8bd7f3568f",
          "transactionIndex": "0x9",
          "logIndex": "0x10",
          "removed": false
        },
        {
          "address": "0x1820a4B7618BdE71Dce8cdc73aAB6C95905faD24",
          "topics": [
            "0x93baa6efbd2244243bfee6ce4cfdd1d04fc4c0e9a786abd3a41313bd352db153",
            "0x0000000000000000000000005d092435e60ed191615df0662277197f1a631124",
            "0xac7fbab5f54a3ca8194167523c6753bfeb96a445279294b6125b68cce2177054",
            "0x0000000000000000000000005d092435e60ed191615df0662277197f1a631124"
          ],
          "data": "0x",
          "blockHash": "0xcfa16962442a068b9f22de17c3da3858fe8b8775a71a5a8b5f3ed11981c0121b",
          "blockNumber": "0x121aa14",
          "transactionHash": "0x8f45837320244f56de1ea73099c3c0aeadf28c6f0bafcf2942354b8bd7f3568f",
          "transactionIndex": "0x9",
          "logIndex": "0x11",
          "removed": false
        },
        {
          "address": "0x1820a4B7618BdE71Dce8cdc73aAB6C95905faD24",
          "topics": [
            "0x93baa6efbd2244243bfee6ce4cfdd1d04fc4c0e9a786abd3a41313bd352db153",
            "0x0000000000000000000000005d092435e60ed191615df0662277197f1a631124",
            "0xaea199e31a596269b42cdafd93407f14436db6e4cad65417994c2eb37381e05a",
            "0x0000000000000000000000005d092435e60ed191615df0662277197f1a631124"
          ],
          "data": "0x",
          "blockHash": "0xcfa16962442a068b9f22de17c3da3858fe8b8775a71a5a8b5f3ed11981c0121b",
          "blockNumber": "0x121aa14",
          "transactionHash": "0x8f45837320244f56de1ea73099c3c0aeadf28c6f0bafcf2942354b8bd7f3568f",
          "transactionIndex": "0x9",
          "logIndex": "0x12",
          "removed": false
        },
        {
          "address": "0x5D092435E60Ed191615dF0662277197f1A631124",
          "topics": [
            "0xddf252ad1be2c89b69c2b068fc378daa952ba7f163c4a11628f55a4df523b3ef",
            "0x0000000000000000000000000000000000000000000000000000000000000000",
            "0x0000000000000000000000000000000000000000000000000000000000000000"
          ],
          "data": "0x0000000000000000000000000000000000000000000000000000000000000000",
          "blockHash": "0xcfa16962442a068b9f22de17c3da3858fe8b8775a71a5a8b5f3ed11981c0121b",
          "blockNumber": "0x121aa14",
          "transactionHash": "0x8f45837320244f56de1ea73099c3c0aeadf28c6f0bafcf2942354b8bd7f3568f",
          "transactionIndex": "0x9",
          "logIndex": "0x13",
          "removed": false
        },
        {
          "address": "0x5D092435E60Ed191615dF0662277197f1A631124",
          "topics": [
            "0x7e644d79422f17c01e4894b5f4f588d331ebfa28653d42ae832dc59e38c9798f",
            "0x0000000000000000000000000000000000000000000000000000000000000000",
            "0x0000000000000000000000000000000000000000000000000000000000000000"
          ],
          "data": "0x",
          "blockHash": "0xcfa16962442a068b9f22de17c3da3858fe8b8775a71a5a8b5f3ed11981c0121b",
          "blockNumber": "0x121aa14",
          "transactionHash": "0x8f45837320244f56de1ea73099c3c0aeadf28c6f0bafcf2942354b8bd7f3568f",
          "transactionIndex": "0x9",
          "logIndex": "0x14",
          "removed": false
        },
        {
          "address": "0x5D092435E60Ed191615dF0662277197f1A631124",
          "topics": [
            "0x7f26b83ff96e1f2b6a682f133852f6798a09c465da95921460cefb3847402498"
          ],
          "data": "0x0000000000000000000000000000000000000000000000000000000000000001",
          "blockHash": "0xcfa16962442a068b9f22de17c3da3858fe8b8775a71a5a8b5f3ed11981c0121b",
          "blockNumber": "0x121aa14",
          "transactionHash": "0x8f45837320244f56de1ea73099c3c0aeadf28c6f0bafcf2942354b8bd7f3568f",
          "transactionIndex": "0x9",
          "logIndex": "0x15",
          "removed": false
        },
        {
          "address": "0x5D092435E60Ed191615dF0662277197f1A631124",
          "topics": [
            "0x2fe5be0146f74c5bce36c0b80911af6c7d86ff27e89d5cfa61fc681327954e5d",
            "0x0000000000000000000000005d092435e60ed191615df0662277197f1a631124",
            "0x00000000000000000000000048ca32c738dc2af6ce8bb33934ff1b59cf8b1831"
          ],
          "data": "0x00000000000000000000000000000000000000000000000000000000000000000000000000000000000000000000000000000000000000000000000000000060000000000000000000000000000000000000000000000000000000000000008000000000000000000000000000000000000000000000000000000000000000000000000000000000000000000000000000000000000000000000000000000000",
          "blockHash": "0xcfa16962442a068b9f22de17c3da3858fe8b8775a71a5a8b5f3ed11981c0121b",
          "blockNumber": "0x121aa14",
          "transactionHash": "0x8f45837320244f56de1ea73099c3c0aeadf28c6f0bafcf2942354b8bd7f3568f",
          "transactionIndex": "0x9",
          "logIndex": "0x16",
          "removed": false
        },
        {
          "address": "0x5D092435E60Ed191615dF0662277197f1A631124",
          "topics": [
            "0xddf252ad1be2c89b69c2b068fc378daa952ba7f163c4a11628f55a4df523b3ef",
            "0x0000000000000000000000000000000000000000000000000000000000000000",
            "0x00000000000000000000000048ca32c738dc2af6ce8bb33934ff1b59cf8b1831"
          ],
          "data": "0x0000000000000000000000000000000000000000000000000000000000000000",
          "blockHash": "0xcfa16962442a068b9f22de17c3da3858fe8b8775a71a5a8b5f3ed11981c0121b",
          "blockNumber": "0x121aa14",
          "transactionHash": "0x8f45837320244f56de1ea73099c3c0aeadf28c6f0bafcf2942354b8bd7f3568f",
          "transactionIndex": "0x9",
          "logIndex": "0x17",
          "removed": false
        }
      ],
      "logsBloom": "0x00000000020000200000000004200000000000000001000004000020000000001040000000000000400000000080000000000000000000000000000000000000000000000000000000000008000200000000000000000000000000000000000000000000020400000000000000000800000010800020000800000010000000000000040000000000000000000000000000000000000080000000000000800000000000000020000000000000000400000000000000100000200800000000000000000002000000000000000000040002000000000410040000000000000020000000010000000000000400000000000002000000000010000000000800000000",
      "type": "0x2",
      "transactionHash": "0x8f45837320244f56de1ea73099c3c0aeadf28c6f0bafcf2942354b8bd7f3568f",
      "transactionIndex": "0x9",
      "blockHash": "0xcfa16962442a068b9f22de17c3da3858fe8b8775a71a5a8b5f3ed11981c0121b",
      "blockNumber": "0x121aa14",
      "gasUsed": "0x375ee",
      "effectiveGasPrice": "0x187bb",
      "from": "0x48CA32c738DC2Af6cE8bB33934fF1b59cF8B1831",
      "to": "0x5D092435E60Ed191615dF0662277197f1A631124",
      "contractAddress": null,
      "l1BaseFeeScalar": "0x44d",
      "l1BlobBaseFee": "0x4b",
      "l1BlobBaseFeeScalar": "0xa118b",
      "l1Fee": "0x453a46353",
      "l1GasPrice": "0x1afc497f9",
      "l1GasUsed": "0x91a"
    },
    {
      "status": "0x1",
      "cumulativeGasUsed": "0x219d87",
      "logs": [
        {
          "address": "0x5D092435E60Ed191615dF0662277197f1A631124",
          "topics": [
            "0x8be0079c531659141344cd1fd0a4f28419497f9722a3daafe3b4186f6b6457e0",
            "0x00000000000000000000000048ca32c738dc2af6ce8bb33934ff1b59cf8b1831",
            "0x00000000000000000000000048ca32c738dc2af6ce8bb33934ff1b59cf8b1831"
          ],
          "data": "0x",
          "blockHash": "0xcfa16962442a068b9f22de17c3da3858fe8b8775a71a5a8b5f3ed11981c0121b",
          "blockNumber": "0x121aa14",
          "transactionHash": "0x9d14e1e7b8b3ca3b2277eee5de1297a926eaecd0977d932655878c959cf7c836",
          "transactionIndex": "0xa",
          "logIndex": "0x18",
          "removed": false
        }
      ],
      "logsBloom": "0x00000000000000000000000004000000000000000001000000800020000000000000000000000000000000000000000000000000000000000000000000000000000000000000000000000000000200000001000000000000000000000000000000000000000000000000000000000000000000000000000000000000000000400000000000000000000000000000000000000000000000000000000000000000000000000000000000000000000000000000000000100000000000000000000000000000000000000000000000000000000000000000000000000000000000000000000000000000000000000000000000000000000010000000000000000000",
      "type": "0x2",
      "transactionHash": "0x9d14e1e7b8b3ca3b2277eee5de1297a926eaecd0977d932655878c959cf7c836",
      "transactionIndex": "0xa",
      "blockHash": "0xcfa16962442a068b9f22de17c3da3858fe8b8775a71a5a8b5f3ed11981c0121b",
      "blockNumber": "0x121aa14",
      "gasUsed": "0x6510",
      "effectiveGasPrice": "0x187bb",
      "from": "0x48CA32c738DC2Af6cE8bB33934fF1b59cF8B1831",
      "to": "0x5D092435E60Ed191615dF0662277197f1A631124",
      "contractAddress": null,
      "l1BaseFeeScalar": "0x44d",
      "l1BlobBaseFee": "0x4b",
      "l1BlobBaseFeeScalar": "0xa118b",
      "l1Fee": "0x2f89a4adf",
      "l1GasPrice": "0x1afc497f9",
      "l1GasUsed": "0x640"
    }
  ],
  "libraries": [],
  "pending": [],
  "returns": {},
  "timestamp": 1733735182,
  "chain": 84532,
  "commit": "c2648d4"
}