{
  "transactions": [
    {
      "hash": "0x633ea214a6faf1d0200dd52f6f4643134d92861a916daa6ebdb97dbbe5d8d3ab",
      "transactionType": "CALL",
      "contractName": null,
      "contractAddress": "0x7cEC6490CEfF2768A1ecfc6d71C1dF819A8a6E3c",
      "function": "createProgram(uint8,address,address,address)",
      "arguments": [
        "0",
        "0x48CA32c738DC2Af6cE8bB33934fF1b59cF8B1831",
        "0x048E94a829f6E464aA2B0d3aB21855bF915a7E2C",
        "0x3A193aC8FcaCCDa817c174D04081C105154a8441"
      ],
      "transaction": {
        "from": "0x48CA32c738DC2Af6cE8bB33934fF1b59cF8B1831",
        "to": "0x7cEC6490CEfF2768A1ecfc6d71C1dF819A8a6E3c",
        "gas": "0xb0d43",
        "value": "0x0",
        "input": "0x6b6282a6000000000000000000000000000000000000000000000000000000000000000000000000000000000000000048ca32c738dc2af6ce8bb33934ff1b59cf8b1831000000000000000000000000048e94a829f6e464aa2b0d3ab21855bf915a7e2c0000000000000000000000003a193ac8fcaccda817c174d04081c105154a8441",
        "nonce": "0xb",
        "chainId": "0x14a34"
      },
      "additionalContracts": [],
      "isFixedGasLimit": false
    },
    {
      "hash": "0x96456952dcbaf989bf05eb22a40a1d1f20d8b3a60ce7c0993b6518a586131122",
      "transactionType": "CALL",
      "contractName": null,
      "contractAddress": "0x3A193aC8FcaCCDa817c174D04081C105154a8441",
      "function": "transfer(address,uint256)",
      "arguments": [
        "0x7269B0c7C831598465a9EB17F6c5a03331353dAF",
        "100000000000000000000000000"
      ],
      "transaction": {
        "from": "0x48CA32c738DC2Af6cE8bB33934fF1b59cF8B1831",
        "to": "0x3A193aC8FcaCCDa817c174D04081C105154a8441",
        "gas": "0x45ac1",
        "value": "0x0",
        "input": "0xa9059cbb0000000000000000000000007269b0c7c831598465a9eb17f6c5a03331353daf00000000000000000000000000000000000000000052b7d2dcc80cd2e4000000",
        "nonce": "0xc",
        "chainId": "0x14a34"
      },
      "additionalContracts": [],
      "isFixedGasLimit": false
    }
  ],
  "receipts": [
    {
      "status": "0x1",
      "cumulativeGasUsed": "0x37a933",
      "logs": [
        {
          "address": "0x301577257C68A46bE7AAc8938e8C23f4973b0fc4",
          "topics": [
            "0x1cf3b03a6cf19fa2baba4df148e9dcabedea7f8a5c07840e207e5c089be95d3e",
            "0x000000000000000000000000507c3a7c6ccc253884a2e3a3ee2a211cc7e796a6"
          ],
          "data": "0x",
          "blockHash": "0xdc306f6efdf33d55ae7cd68afec76e2bf2d00a005bd6141d0ef968fc4134c00b",
          "blockNumber": "0xfceaee",
          "transactionHash": "0x633ea214a6faf1d0200dd52f6f4643134d92861a916daa6ebdb97dbbe5d8d3ab",
          "transactionIndex": "0xc",
          "logIndex": "0x36",
          "removed": false
        },
        {
          "address": "0x301577257C68A46bE7AAc8938e8C23f4973b0fc4",
          "topics": [
            "0x7f26b83ff96e1f2b6a682f133852f6798a09c465da95921460cefb3847402498"
          ],
          "data": "0x0000000000000000000000000000000000000000000000000000000000000001",
          "blockHash": "0xdc306f6efdf33d55ae7cd68afec76e2bf2d00a005bd6141d0ef968fc4134c00b",
          "blockNumber": "0xfceaee",
          "transactionHash": "0x633ea214a6faf1d0200dd52f6f4643134d92861a916daa6ebdb97dbbe5d8d3ab",
          "transactionIndex": "0xc",
          "logIndex": "0x37",
          "removed": false
        },
        {
          "address": "0x3A193aC8FcaCCDa817c174D04081C105154a8441",
          "topics": [
            "0x30f416fa68fca014a0f334464c64b000ba53e99b6d2afdea9d5ca756372d5985",
            "0x00000000000000000000000053f4f44c813dc380182d0b2b67fe5832a12b97f8",
            "0x000000000000000000000000301577257c68a46be7aac8938e8c23f4973b0fc4"
          ],
          "data": "0x0000000000000000000000000000000000000000000000000000000000000000",
          "blockHash": "0xdc306f6efdf33d55ae7cd68afec76e2bf2d00a005bd6141d0ef968fc4134c00b",
          "blockNumber": "0xfceaee",
          "transactionHash": "0x633ea214a6faf1d0200dd52f6f4643134d92861a916daa6ebdb97dbbe5d8d3ab",
          "transactionIndex": "0xc",
          "logIndex": "0x38",
          "removed": false
        },
        {
          "address": "0xe64f81d5dDdA1c7172e5C6d964E8ef1BD82D8704",
          "topics": [
            "0xddf252ad1be2c89b69c2b068fc378daa952ba7f163c4a11628f55a4df523b3ef",
            "0x0000000000000000000000000000000000000000000000000000000000000000",
            "0x0000000000000000000000007cec6490ceff2768a1ecfc6d71c1df819a8a6e3c",
            "0x972c15f97ae02f87f5bd62e23608e9bb1636ca2c762285f199cc1587976398c5"
          ],
          "data": "0x",
          "blockHash": "0xdc306f6efdf33d55ae7cd68afec76e2bf2d00a005bd6141d0ef968fc4134c00b",
          "blockNumber": "0xfceaee",
          "transactionHash": "0x633ea214a6faf1d0200dd52f6f4643134d92861a916daa6ebdb97dbbe5d8d3ab",
          "transactionIndex": "0xc",
          "logIndex": "0x39",
          "removed": false
        },
        {
          "address": "0x53F4f44C813Dc380182d0b2b67fe5832A12B97f8",
          "topics": [
            "0x9c5d829b9b23efc461f9aeef91979ec04bb903feb3bee4f26d22114abfc7335b",
            "0x0000000000000000000000003a193ac8fcaccda817c174d04081c105154a8441",
            "0x0000000000000000000000007cec6490ceff2768a1ecfc6d71c1df819a8a6e3c"
          ],
          "data": "0x000000000000000000000000301577257c68a46be7aac8938e8c23f4973b0fc4",
          "blockHash": "0xdc306f6efdf33d55ae7cd68afec76e2bf2d00a005bd6141d0ef968fc4134c00b",
          "blockNumber": "0xfceaee",
          "transactionHash": "0x633ea214a6faf1d0200dd52f6f4643134d92861a916daa6ebdb97dbbe5d8d3ab",
          "transactionIndex": "0xc",
          "logIndex": "0x3a",
          "removed": false
        }
      ],
      "logsBloom": "0x000000000000001200000000010000000000004000a00000000000000000000000000800000000000000000000000000000000000000000000000000008000000000000400000000048000081090000000002004000000000000000001000000000000000200000000000000080008000000000000000000000000100000000000400002000000800000200000000800000000000000900000000000000040020200000000000000000000000004000020000004000020000000000000000020000000020000000008000000001c0001000000000000000004800000000020000000000000000000000000000000000000000000000000000004000000000200",
      "type": "0x2",
      "transactionHash": "0x633ea214a6faf1d0200dd52f6f4643134d92861a916daa6ebdb97dbbe5d8d3ab",
      "transactionIndex": "0xc",
      "blockHash": "0xdc306f6efdf33d55ae7cd68afec76e2bf2d00a005bd6141d0ef968fc4134c00b",
      "blockNumber": "0xfceaee",
      "gasUsed": "0x78f08",
      "effectiveGasPrice": "0xc9b617a",
      "from": "0x48CA32c738DC2Af6cE8bB33934fF1b59cF8B1831",
      "to": "0x7cEC6490CEfF2768A1ecfc6d71C1dF819A8a6E3c",
      "contractAddress": null,
      "l1BaseFeeScalar": "0x44d",
      "l1BlobBaseFee": "0x1e",
      "l1BlobBaseFeeScalar": "0xa118b",
      "l1Fee": "0x1a2929c511",
      "l1GasPrice": "0xc682ff4ad",
      "l1GasUsed": "0x77b"
    },
    {
      "status": "0x1",
      "cumulativeGasUsed": "0x3ad043",
      "logs": [
        {
          "address": "0x3A193aC8FcaCCDa817c174D04081C105154a8441",
          "topics": [
            "0x06b541ddaa720db2b10a4d0cdac39b8d360425fc073085fac19bc82614677987",
            "0x00000000000000000000000048ca32c738dc2af6ce8bb33934ff1b59cf8b1831",
            "0x00000000000000000000000048ca32c738dc2af6ce8bb33934ff1b59cf8b1831",
            "0x0000000000000000000000007269b0c7c831598465a9eb17f6c5a03331353daf"
          ],
          "data": "0x00000000000000000000000000000000000000000052b7d2dcc80cd2e40000000000000000000000000000000000000000000000000000000000000000000060000000000000000000000000000000000000000000000000000000000000008000000000000000000000000000000000000000000000000000000000000000000000000000000000000000000000000000000000000000000000000000000000",
          "blockHash": "0xdc306f6efdf33d55ae7cd68afec76e2bf2d00a005bd6141d0ef968fc4134c00b",
          "blockNumber": "0xfceaee",
          "transactionHash": "0x96456952dcbaf989bf05eb22a40a1d1f20d8b3a60ce7c0993b6518a586131122",
          "transactionIndex": "0xd",
          "logIndex": "0x3b",
          "removed": false
        },
        {
          "address": "0x3A193aC8FcaCCDa817c174D04081C105154a8441",
          "topics": [
            "0xddf252ad1be2c89b69c2b068fc378daa952ba7f163c4a11628f55a4df523b3ef",
            "0x00000000000000000000000048ca32c738dc2af6ce8bb33934ff1b59cf8b1831",
            "0x0000000000000000000000007269b0c7c831598465a9eb17f6c5a03331353daf"
          ],
          "data": "0x00000000000000000000000000000000000000000052b7d2dcc80cd2e4000000",
          "blockHash": "0xdc306f6efdf33d55ae7cd68afec76e2bf2d00a005bd6141d0ef968fc4134c00b",
          "blockNumber": "0xfceaee",
          "transactionHash": "0x96456952dcbaf989bf05eb22a40a1d1f20d8b3a60ce7c0993b6518a586131122",
          "transactionIndex": "0xd",
          "logIndex": "0x3c",
          "removed": false
        }
      ],
      "logsBloom": "0x00000000000000100000000004000000000000000000000000000020000000000000000000000000000000000000000000000000000000000000000000000000000000000000000004000008000000000000000000000000000000000000000000000000000000000000000000000000000000400000000000000010000000000000000000000000000000000000000000000000000000000000000000000000000000000100000000000000000000002000000000000100000000000000000000000002000000000000000000000000008000000000000000002000000000000000001000000000000000000000000000000000000010000000000000000000",
      "type": "0x2",
      "transactionHash": "0x96456952dcbaf989bf05eb22a40a1d1f20d8b3a60ce7c0993b6518a586131122",
      "transactionIndex": "0xd",
      "blockHash": "0xdc306f6efdf33d55ae7cd68afec76e2bf2d00a005bd6141d0ef968fc4134c00b",
      "blockNumber": "0xfceaee",
      "gasUsed": "0x32710",
      "effectiveGasPrice": "0xc9b617a",
      "from": "0x48CA32c738DC2Af6cE8bB33934fF1b59cF8B1831",
      "to": "0x3A193aC8FcaCCDa817c174D04081C105154a8441",
      "contractAddress": null,
      "l1BaseFeeScalar": "0x44d",
      "l1BlobBaseFee": "0x1e",
      "l1BlobBaseFeeScalar": "0xa118b",
      "l1Fee": "0x15db2bf56c",
      "l1GasPrice": "0xc682ff4ad",
      "l1GasUsed": "0x640"
    }
  ],
  "libraries": [],
  "pending": [],
  "returns": {},
  "timestamp": 1728918723,
  "chain": 84532,
  "commit": "07bf7f8"
}