{
  "transactions": [
    {
      "hash": "0x0c38763abf3141a68077b3f5f63f2c8c4f0e49ae532ac10a63e64522ef8562d2",
      "transactionType": "CALL",
      "contractName": null,
      "contractAddress": "0x39b890FD826cAED6e56D890398441400f691f340",
      "function": "createProgram(uint256,address,address,address)",
      "arguments": [
        "3756",
        "0x48CA32c738DC2Af6cE8bB33934fF1b59cF8B1831",
        "0xBc2cfCd4c615Ff1d06f1d07b37E3652b15bd40A2",
        "0x3A193aC8FcaCCDa817c174D04081C105154a8441"
      ],
      "transaction": {
        "from": "0x48CA32c738DC2Af6cE8bB33934fF1b59cF8B1831",
        "to": "0x39b890FD826cAED6e56D890398441400f691f340",
        "gas": "0xa6fee",
        "value": "0x0",
        "input": "0x0fe0d3000000000000000000000000000000000000000000000000000000000000000eac00000000000000000000000048ca32c738dc2af6ce8bb33934ff1b59cf8b1831000000000000000000000000bc2cfcd4c615ff1d06f1d07b37e3652b15bd40a20000000000000000000000003a193ac8fcaccda817c174d04081c105154a8441",
        "nonce": "0x29",
        "chainId": "0x14a34"
      },
      "additionalContracts": [],
      "isFixedGasLimit": false
    }
  ],
  "receipts": [
    {
      "status": "0x1",
      "cumulativeGasUsed": "0x59eefd",
      "logs": [
        {
          "address": "0xb3f03Fa6363B63aAA0C153253E83cC36DeC3b10e",
          "topics": [
            "0x1cf3b03a6cf19fa2baba4df148e9dcabedea7f8a5c07840e207e5c089be95d3e",
            "0x000000000000000000000000507c3a7c6ccc253884a2e3a3ee2a211cc7e796a6"
          ],
          "data": "0x",
          "blockHash": "0x1c958490b43f1aa5d445d8bbad05cfd61a994ef87b08e0afa07f5c68fb357a12",
          "blockNumber": "0x1035256",
          "transactionHash": "0x0c38763abf3141a68077b3f5f63f2c8c4f0e49ae532ac10a63e64522ef8562d2",
          "transactionIndex": "0x1e",
          "logIndex": "0x25",
          "removed": false
        },
        {
          "address": "0xb3f03Fa6363B63aAA0C153253E83cC36DeC3b10e",
          "topics": [
            "0x7f26b83ff96e1f2b6a682f133852f6798a09c465da95921460cefb3847402498"
          ],
          "data": "0x0000000000000000000000000000000000000000000000000000000000000001",
          "blockHash": "0x1c958490b43f1aa5d445d8bbad05cfd61a994ef87b08e0afa07f5c68fb357a12",
          "blockNumber": "0x1035256",
          "transactionHash": "0x0c38763abf3141a68077b3f5f63f2c8c4f0e49ae532ac10a63e64522ef8562d2",
          "transactionIndex": "0x1e",
          "logIndex": "0x26",
          "removed": false
        },
        {
          "address": "0x3A193aC8FcaCCDa817c174D04081C105154a8441",
          "topics": [
            "0x30f416fa68fca014a0f334464c64b000ba53e99b6d2afdea9d5ca756372d5985",
            "0x00000000000000000000000053f4f44c813dc380182d0b2b67fe5832a12b97f8",
            "0x000000000000000000000000b3f03fa6363b63aaa0c153253e83cc36dec3b10e"
          ],
          "data": "0x0000000000000000000000000000000000000000000000000000000000000000",
          "blockHash": "0x1c958490b43f1aa5d445d8bbad05cfd61a994ef87b08e0afa07f5c68fb357a12",
          "blockNumber": "0x1035256",
          "transactionHash": "0x0c38763abf3141a68077b3f5f63f2c8c4f0e49ae532ac10a63e64522ef8562d2",
          "transactionIndex": "0x1e",
          "logIndex": "0x27",
          "removed": false
        },
        {
          "address": "0xe64f81d5dDdA1c7172e5C6d964E8ef1BD82D8704",
          "topics": [
            "0xddf252ad1be2c89b69c2b068fc378daa952ba7f163c4a11628f55a4df523b3ef",
            "0x0000000000000000000000000000000000000000000000000000000000000000",
            "0x00000000000000000000000039b890fd826caed6e56d890398441400f691f340",
            "0xdfff82fe045fa9fe356266be26995761f4f2bd426e5eaf3c760977f273c8c3ed"
          ],
          "data": "0x",
          "blockHash": "0x1c958490b43f1aa5d445d8bbad05cfd61a994ef87b08e0afa07f5c68fb357a12",
          "blockNumber": "0x1035256",
          "transactionHash": "0x0c38763abf3141a68077b3f5f63f2c8c4f0e49ae532ac10a63e64522ef8562d2",
          "transactionIndex": "0x1e",
          "logIndex": "0x28",
          "removed": false
        },
        {
          "address": "0x53F4f44C813Dc380182d0b2b67fe5832A12B97f8",
          "topics": [
            "0x9c5d829b9b23efc461f9aeef91979ec04bb903feb3bee4f26d22114abfc7335b",
            "0x0000000000000000000000003a193ac8fcaccda817c174d04081c105154a8441",
            "0x00000000000000000000000039b890fd826caed6e56d890398441400f691f340"
          ],
          "data": "0x000000000000000000000000b3f03fa6363b63aaa0c153253e83cc36dec3b10e",
          "blockHash": "0x1c958490b43f1aa5d445d8bbad05cfd61a994ef87b08e0afa07f5c68fb357a12",
          "blockNumber": "0x1035256",
          "transactionHash": "0x0c38763abf3141a68077b3f5f63f2c8c4f0e49ae532ac10a63e64522ef8562d2",
          "transactionIndex": "0x1e",
          "logIndex": "0x29",
          "removed": false
        }
      ],
      "logsBloom": "0x000400000000001000001000000000000000004000800000000000000000000000000800000000000000000000000000000000004000000000000000008000000000000400000000048000081010000000000004000000000000000001002000000000000200000000000000000008000000000000000000000000100000001000000002000000000000200000000800000000000000800000800000000040000200000000080000000000000004000820000004000000000100000000000000000000022000000008000000001c0001000000000000000004801000000020000000000000000000000000000000000000000000000000000004000000000200",
      "type": "0x2",
      "transactionHash": "0x0c38763abf3141a68077b3f5f63f2c8c4f0e49ae532ac10a63e64522ef8562d2",
      "transactionIndex": "0x1e",
      "blockHash": "0x1c958490b43f1aa5d445d8bbad05cfd61a994ef87b08e0afa07f5c68fb357a12",
      "blockNumber": "0x1035256",
      "gasUsed": "0x78eed",
      "effectiveGasPrice": "0x13f03650",
      "from": "0x48CA32c738DC2Af6cE8bB33934fF1b59cF8B1831",
      "to": "0x39b890FD826cAED6e56D890398441400f691f340",
      "contractAddress": null,
      "l1BaseFeeScalar": "0x44d",
      "l1BlobBaseFee": "0x1",
      "l1BlobBaseFeeScalar": "0xa118b",
      "l1Fee": "0x139b19dea",
      "l1GasPrice": "0x8fbfbe13",
      "l1GasUsed": "0x7be"
    }
  ],
  "libraries": [],
  "pending": [],
  "returns": {},
  "timestamp": 1729758097,
  "chain": 84532,
  "commit": "dd8ae80"
}