{
  "transactions": [
    {
      "hash": "0xa36caf535f1088e12fa1d07f582d300aea0d7e626845492a6fe8f04142ff742a",
      "transactionType": "CALL",
      "contractName": null,
      "contractAddress": "0xe175053257B6A0Fe7EAE537499Ba4465065DdD88",
      "function": "createProgram(uint256,address,address,address)",
      "arguments": [
        "5514",
        "0x48CA32c738DC2Af6cE8bB33934fF1b59cF8B1831",
        "0xBc2cfCd4c615Ff1d06f1d07b37E3652b15bd40A2",
        "0x3A193aC8FcaCCDa817c174D04081C105154a8441"
      ],
      "transaction": {
        "from": "0x48CA32c738DC2Af6cE8bB33934fF1b59cF8B1831",
        "to": "0xe175053257B6A0Fe7EAE537499Ba4465065DdD88",
        "gas": "0x9422d",
        "value": "0x0",
        "input": "0x0fe0d300000000000000000000000000000000000000000000000000000000000000158a00000000000000000000000048ca32c738dc2af6ce8bb33934ff1b59cf8b1831000000000000000000000000bc2cfcd4c615ff1d06f1d07b37e3652b15bd40a20000000000000000000000003a193ac8fcaccda817c174d04081c105154a8441",
        "nonce": "0x41",
        "chainId": "0x14a34"
      },
      "additionalContracts": [],
      "isFixedGasLimit": false
    }
  ],
  "receipts": [
    {
      "status": "0x1",
      "cumulativeGasUsed": "0x3b04b4",
      "logs": [
        {
          "address": "0x0c05BB095EA0cA72DB5DE4A62b9241a136c80478",
          "topics": [
            "0x1cf3b03a6cf19fa2baba4df148e9dcabedea7f8a5c07840e207e5c089be95d3e",
            "0x000000000000000000000000507c3a7c6ccc253884a2e3a3ee2a211cc7e796a6"
          ],
          "data": "0x",
          "blockHash": "0x5492581a3f97cd23ebc31df6b2092c767e49fedbcd46052e31135b1410bbe1ae",
          "blockNumber": "0x1075ffd",
          "transactionHash": "0xa36caf535f1088e12fa1d07f582d300aea0d7e626845492a6fe8f04142ff742a",
          "transactionIndex": "0xc",
          "logIndex": "0x2f",
          "removed": false
        },
        {
          "address": "0x0c05BB095EA0cA72DB5DE4A62b9241a136c80478",
          "topics": [
            "0x7f26b83ff96e1f2b6a682f133852f6798a09c465da95921460cefb3847402498"
          ],
          "data": "0x0000000000000000000000000000000000000000000000000000000000000001",
          "blockHash": "0x5492581a3f97cd23ebc31df6b2092c767e49fedbcd46052e31135b1410bbe1ae",
          "blockNumber": "0x1075ffd",
          "transactionHash": "0xa36caf535f1088e12fa1d07f582d300aea0d7e626845492a6fe8f04142ff742a",
          "transactionIndex": "0xc",
          "logIndex": "0x30",
          "removed": false
        },
        {
          "address": "0x3A193aC8FcaCCDa817c174D04081C105154a8441",
          "topics": [
            "0x30f416fa68fca014a0f334464c64b000ba53e99b6d2afdea9d5ca756372d5985",
            "0x00000000000000000000000053f4f44c813dc380182d0b2b67fe5832a12b97f8",
            "0x0000000000000000000000000c05bb095ea0ca72db5de4a62b9241a136c80478"
          ],
          "data": "0x0000000000000000000000000000000000000000000000000000000000000000",
          "blockHash": "0x5492581a3f97cd23ebc31df6b2092c767e49fedbcd46052e31135b1410bbe1ae",
          "blockNumber": "0x1075ffd",
          "transactionHash": "0xa36caf535f1088e12fa1d07f582d300aea0d7e626845492a6fe8f04142ff742a",
          "transactionIndex": "0xc",
          "logIndex": "0x31",
          "removed": false
        },
        {
          "address": "0xe64f81d5dDdA1c7172e5C6d964E8ef1BD82D8704",
          "topics": [
            "0xddf252ad1be2c89b69c2b068fc378daa952ba7f163c4a11628f55a4df523b3ef",
            "0x0000000000000000000000000000000000000000000000000000000000000000",
            "0x000000000000000000000000e175053257b6a0fe7eae537499ba4465065ddd88",
            "0x600e01815952d39dc81367f7ec2976cab46761bd8ac37123904676b97c9efe9b"
          ],
          "data": "0x",
          "blockHash": "0x5492581a3f97cd23ebc31df6b2092c767e49fedbcd46052e31135b1410bbe1ae",
          "blockNumber": "0x1075ffd",
          "transactionHash": "0xa36caf535f1088e12fa1d07f582d300aea0d7e626845492a6fe8f04142ff742a",
          "transactionIndex": "0xc",
          "logIndex": "0x32",
          "removed": false
        },
        {
          "address": "0x53F4f44C813Dc380182d0b2b67fe5832A12B97f8",
          "topics": [
            "0x9c5d829b9b23efc461f9aeef91979ec04bb903feb3bee4f26d22114abfc7335b",
            "0x0000000000000000000000003a193ac8fcaccda817c174d04081c105154a8441",
            "0x000000000000000000000000e175053257b6a0fe7eae537499ba4465065ddd88"
          ],
          "data": "0x0000000000000000000000000c05bb095ea0ca72db5de4a62b9241a136c80478",
          "blockHash": "0x5492581a3f97cd23ebc31df6b2092c767e49fedbcd46052e31135b1410bbe1ae",
          "blockNumber": "0x1075ffd",
          "transactionHash": "0xa36caf535f1088e12fa1d07f582d300aea0d7e626845492a6fe8f04142ff742a",
          "transactionIndex": "0xc",
          "logIndex": "0x33",
          "removed": false
        }
      ],
      "logsBloom": "0x000000000000001000000000000000080000004000800000000000000000000000000a00000400000000000000000000000000000000000000002000008000000000000400000000048000081010000000000004000000000000000001000000000000000200000000000000000008000000000000000000000000100000000000000002000040000000200000000800000000000000800000000000040040000200000000000000000000000004000020000004000000002000000000000200000000020000000008000000001c0001000000008000000004810000000020000000000000000000000000000100000000000000000000000404000000000200",
      "type": "0x2",
      "transactionHash": "0xa36caf535f1088e12fa1d07f582d300aea0d7e626845492a6fe8f04142ff742a",
      "transactionIndex": "0xc",
      "blockHash": "0x5492581a3f97cd23ebc31df6b2092c767e49fedbcd46052e31135b1410bbe1ae",
      "blockNumber": "0x1075ffd",
      "gasUsed": "0x6b476",
      "effectiveGasPrice": "0xf43bf",
      "from": "0x48CA32c738DC2Af6cE8bB33934fF1b59cF8B1831",
      "to": "0xe175053257B6A0Fe7EAE537499Ba4465065DdD88",
      "contractAddress": null,
      "l1BaseFeeScalar": "0x44d",
      "l1BlobBaseFee": "0x1",
      "l1BlobBaseFeeScalar": "0xa118b",
      "l1Fee": "0x16b09a734",
      "l1GasPrice": "0xa77ddcdf",
      "l1GasUsed": "0x7b0"
    }
  ],
  "libraries": [],
  "pending": [],
  "returns": {},
  "timestamp": 1730289377,
  "chain": 84532,
  "commit": "8232682"
}