{
  "transactions": [
    {
      "hash": "0x0d0de75865cf06dc202a018ca58f4c2457d856eeacdeb552a25f7cee4fdd173e",
      "transactionType": "CALL",
      "contractName": null,
      "contractAddress": "0xa7D3fbeF15fB211aF404DCc0eF410aCBBd6B6bA2",
      "function": "createProgram(uint8,address,address,address)",
      "arguments": [
        "0",
        "0x48CA32c738DC2Af6cE8bB33934fF1b59cF8B1831",
        "0x048E94a829f6E464aA2B0d3aB21855bF915a7E2C",
        "0x3A193aC8FcaCCDa817c174D04081C105154a8441"
      ],
      "transaction": {
        "from": "0x48CA32c738DC2Af6cE8bB33934fF1b59cF8B1831",
        "to": "0xa7D3fbeF15fB211aF404DCc0eF410aCBBd6B6bA2",
        "gas": "0xb0d64",
        "value": "0x0",
        "input": "0x6b6282a6000000000000000000000000000000000000000000000000000000000000000000000000000000000000000048ca32c738dc2af6ce8bb33934ff1b59cf8b1831000000000000000000000000048e94a829f6e464aa2b0d3ab21855bf915a7e2c0000000000000000000000003a193ac8fcaccda817c174d04081c105154a8441",
        "nonce": "0x13",
        "chainId": "0x14a34"
      },
      "additionalContracts": [],
      "isFixedGasLimit": false
    }
  ],
  "receipts": [
    {
      "status": "0x1",
      "cumulativeGasUsed": "0x4ebeb2",
      "logs": [
        {
          "address": "0x3B30e75D9324f310399F45B6Dd5A34b19A44925e",
          "topics": [
            "0x1cf3b03a6cf19fa2baba4df148e9dcabedea7f8a5c07840e207e5c089be95d3e",
            "0x000000000000000000000000507c3a7c6ccc253884a2e3a3ee2a211cc7e796a6"
          ],
          "data": "0x",
          "blockHash": "0x69a559937541c694638d8f1cfd8bed9715bf800d6d97b0714220326ced3a7e51",
          "blockNumber": "0xfd61a2",
          "transactionHash": "0x0d0de75865cf06dc202a018ca58f4c2457d856eeacdeb552a25f7cee4fdd173e",
          "transactionIndex": "0x13",
          "logIndex": "0x4d",
          "removed": false
        },
        {
          "address": "0x3B30e75D9324f310399F45B6Dd5A34b19A44925e",
          "topics": [
            "0x7f26b83ff96e1f2b6a682f133852f6798a09c465da95921460cefb3847402498"
          ],
          "data": "0x0000000000000000000000000000000000000000000000000000000000000001",
          "blockHash": "0x69a559937541c694638d8f1cfd8bed9715bf800d6d97b0714220326ced3a7e51",
          "blockNumber": "0xfd61a2",
          "transactionHash": "0x0d0de75865cf06dc202a018ca58f4c2457d856eeacdeb552a25f7cee4fdd173e",
          "transactionIndex": "0x13",
          "logIndex": "0x4e",
          "removed": false
        },
        {
          "address": "0x3A193aC8FcaCCDa817c174D04081C105154a8441",
          "topics": [
            "0x30f416fa68fca014a0f334464c64b000ba53e99b6d2afdea9d5ca756372d5985",
            "0x00000000000000000000000053f4f44c813dc380182d0b2b67fe5832a12b97f8",
            "0x0000000000000000000000003b30e75d9324f310399f45b6dd5a34b19a44925e"
          ],
          "data": "0x0000000000000000000000000000000000000000000000000000000000000000",
          "blockHash": "0x69a559937541c694638d8f1cfd8bed9715bf800d6d97b0714220326ced3a7e51",
          "blockNumber": "0xfd61a2",
          "transactionHash": "0x0d0de75865cf06dc202a018ca58f4c2457d856eeacdeb552a25f7cee4fdd173e",
          "transactionIndex": "0x13",
          "logIndex": "0x4f",
          "removed": false
        },
        {
          "address": "0xe64f81d5dDdA1c7172e5C6d964E8ef1BD82D8704",
          "topics": [
            "0xddf252ad1be2c89b69c2b068fc378daa952ba7f163c4a11628f55a4df523b3ef",
            "0x0000000000000000000000000000000000000000000000000000000000000000",
            "0x000000000000000000000000a7d3fbef15fb211af404dcc0ef410acbbd6b6ba2",
            "0xf9c2ae26cbaded64c52bd5faab1ef76eb73e10dfa91e78f9ff3d259dd415cea3"
          ],
          "data": "0x",
          "blockHash": "0x69a559937541c694638d8f1cfd8bed9715bf800d6d97b0714220326ced3a7e51",
          "blockNumber": "0xfd61a2",
          "transactionHash": "0x0d0de75865cf06dc202a018ca58f4c2457d856eeacdeb552a25f7cee4fdd173e",
          "transactionIndex": "0x13",
          "logIndex": "0x50",
          "removed": false
        },
        {
          "address": "0x53F4f44C813Dc380182d0b2b67fe5832A12B97f8",
          "topics": [
            "0x9c5d829b9b23efc461f9aeef91979ec04bb903feb3bee4f26d22114abfc7335b",
            "0x0000000000000000000000003a193ac8fcaccda817c174d04081c105154a8441",
            "0x000000000000000000000000a7d3fbef15fb211af404dcc0ef410acbbd6b6ba2"
          ],
          "data": "0x0000000000000000000000003b30e75d9324f310399f45b6dd5a34b19a44925e",
          "blockHash": "0x69a559937541c694638d8f1cfd8bed9715bf800d6d97b0714220326ced3a7e51",
          "blockNumber": "0xfd61a2",
          "transactionHash": "0x0d0de75865cf06dc202a018ca58f4c2457d856eeacdeb552a25f7cee4fdd173e",
          "transactionIndex": "0x13",
          "logIndex": "0x51",
          "removed": false
        }
      ],
      "logsBloom": "0x100000000000001000000000000000000000004000800000000000000000000000000800000000000000000000000000000000000000000000000000008000000000000400000000048000081010000000000004000000000000000001000000001000000a0000000000020000000800000000000000000000000010000000000000000a000000000000200000000800000000000000800000000000000040000200000000000000000000000004000020000004800000000000040000000000000000020400000008000001001c0001000000000000000004800000000020000000000000000004000000000000000000000000000000000004000008000200",
      "type": "0x2",
      "transactionHash": "0x0d0de75865cf06dc202a018ca58f4c2457d856eeacdeb552a25f7cee4fdd173e",
      "transactionIndex": "0x13",
      "blockHash": "0x69a559937541c694638d8f1cfd8bed9715bf800d6d97b0714220326ced3a7e51",
      "blockNumber": "0xfd61a2",
      "gasUsed": "0x78f1f",
      "effectiveGasPrice": "0x1153c35e",
      "from": "0x48CA32c738DC2Af6cE8bB33934fF1b59cF8B1831",
      "to": "0xa7D3fbeF15fB211aF404DCc0eF410aCBBd6B6bA2",
      "contractAddress": null,
      "l1BaseFeeScalar": "0x44d",
      "l1BlobBaseFee": "0x1",
      "l1BlobBaseFeeScalar": "0xa118b",
      "l1Fee": "0x3409e9f0ab",
      "l1GasPrice": "0x18ae08542d",
      "l1GasUsed": "0x77b"
    }
  ],
  "libraries": [],
  "pending": [],
  "returns": {},
  "timestamp": 1728979497,
  "chain": 84532,
  "commit": "4cb190c"
}