{
  "transactions": [
    {
      "hash": "0xa1203a6d0787b2b2413c92024524fbcfde1c61c797fc87cdb839b2217e74419f",
      "transactionType": "CALL",
      "contractName": null,
      "contractAddress": "0x376120A6c56c5CA10a9b5eC8F7aFBC2d576f2C35",
      "function": "createProgram(uint96,address,address,address)",
      "arguments": [
        "1",
        "0x48CA32c738DC2Af6cE8bB33934fF1b59cF8B1831",
        "0x048E94a829f6E464aA2B0d3aB21855bF915a7E2C",
        "0x3A193aC8FcaCCDa817c174D04081C105154a8441"
      ],
      "transaction": {
        "from": "0x48CA32c738DC2Af6cE8bB33934fF1b59cF8B1831",
        "to": "0x376120A6c56c5CA10a9b5eC8F7aFBC2d576f2C35",
        "gas": "0x9cd92",
        "value": "0x0",
        "input": "0xd05f4f00000000000000000000000000000000000000000000000000000000000000000100000000000000000000000048ca32c738dc2af6ce8bb33934ff1b59cf8b1831000000000000000000000000048e94a829f6e464aa2b0d3ab21855bf915a7e2c0000000000000000000000003a193ac8fcaccda817c174d04081c105154a8441",
        "nonce": "0x1b",
        "chainId": "0x14a34"
      },
      "additionalContracts": [],
      "isFixedGasLimit": false
    }
  ],
  "receipts": [
    {
      "status": "0x1",
      "cumulativeGasUsed": "0xbfe43",
      "logs": [
        {
          "address": "0x6589d6dFfd7b7c6590506fde6F2475347787d5b2",
          "topics": [
            "0x1cf3b03a6cf19fa2baba4df148e9dcabedea7f8a5c07840e207e5c089be95d3e",
            "0x000000000000000000000000507c3a7c6ccc253884a2e3a3ee2a211cc7e796a6"
          ],
          "data": "0x",
          "blockHash": "0x810e615710a04e7ced674509e448e31d43610076a316b83cfd5e3aac21890b27",
          "blockNumber": "0xff97a4",
          "transactionHash": "0xa1203a6d0787b2b2413c92024524fbcfde1c61c797fc87cdb839b2217e74419f",
          "transactionIndex": "0x5",
          "logIndex": "0x6",
          "removed": false
        },
        {
          "address": "0x6589d6dFfd7b7c6590506fde6F2475347787d5b2",
          "topics": [
            "0x7f26b83ff96e1f2b6a682f133852f6798a09c465da95921460cefb3847402498"
          ],
          "data": "0x0000000000000000000000000000000000000000000000000000000000000001",
          "blockHash": "0x810e615710a04e7ced674509e448e31d43610076a316b83cfd5e3aac21890b27",
          "blockNumber": "0xff97a4",
          "transactionHash": "0xa1203a6d0787b2b2413c92024524fbcfde1c61c797fc87cdb839b2217e74419f",
          "transactionIndex": "0x5",
          "logIndex": "0x7",
          "removed": false
        },
        {
          "address": "0x3A193aC8FcaCCDa817c174D04081C105154a8441",
          "topics": [
            "0x30f416fa68fca014a0f334464c64b000ba53e99b6d2afdea9d5ca756372d5985",
            "0x00000000000000000000000053f4f44c813dc380182d0b2b67fe5832a12b97f8",
            "0x0000000000000000000000006589d6dffd7b7c6590506fde6f2475347787d5b2"
          ],
          "data": "0x0000000000000000000000000000000000000000000000000000000000000000",
          "blockHash": "0x810e615710a04e7ced674509e448e31d43610076a316b83cfd5e3aac21890b27",
          "blockNumber": "0xff97a4",
          "transactionHash": "0xa1203a6d0787b2b2413c92024524fbcfde1c61c797fc87cdb839b2217e74419f",
          "transactionIndex": "0x5",
          "logIndex": "0x8",
          "removed": false
        },
        {
          "address": "0xe64f81d5dDdA1c7172e5C6d964E8ef1BD82D8704",
          "topics": [
            "0xddf252ad1be2c89b69c2b068fc378daa952ba7f163c4a11628f55a4df523b3ef",
            "0x0000000000000000000000000000000000000000000000000000000000000000",
            "0x000000000000000000000000376120a6c56c5ca10a9b5ec8f7afbc2d576f2c35",
            "0x1b4123c06d2fc0a994870d9faa7c7bb640ff91795a51bcab2d13e2fb088ba815"
          ],
          "data": "0x",
          "blockHash": "0x810e615710a04e7ced674509e448e31d43610076a316b83cfd5e3aac21890b27",
          "blockNumber": "0xff97a4",
          "transactionHash": "0xa1203a6d0787b2b2413c92024524fbcfde1c61c797fc87cdb839b2217e74419f",
          "transactionIndex": "0x5",
          "logIndex": "0x9",
          "removed": false
        },
        {
          "address": "0x53F4f44C813Dc380182d0b2b67fe5832A12B97f8",
          "topics": [
            "0x9c5d829b9b23efc461f9aeef91979ec04bb903feb3bee4f26d22114abfc7335b",
            "0x0000000000000000000000003a193ac8fcaccda817c174d04081c105154a8441",
            "0x000000000000000000000000376120a6c56c5ca10a9b5ec8f7afbc2d576f2c35"
          ],
          "data": "0x0000000000000000000000006589d6dffd7b7c6590506fde6f2475347787d5b2",
          "blockHash": "0x810e615710a04e7ced674509e448e31d43610076a316b83cfd5e3aac21890b27",
          "blockNumber": "0xff97a4",
          "transactionHash": "0xa1203a6d0787b2b2413c92024524fbcfde1c61c797fc87cdb839b2217e74419f",
          "transactionIndex": "0x5",
          "logIndex": "0xa",
          "removed": false
        }
      ],
      "logsBloom": "0x000000000000001000000000000010000000004000800100000000000000000000000800000000000000000000000000000000000000000000000000008000000000000400000000048000081010000000020004000000000000000001000000400000000200001000000000000008000000000000000000000000100000000000002002000000000000200000000840000000000000800000100000004040000200000000000000000000000004000020000004000000000000000000000000000000020000000008000000001c0001000000000000000004800000000020000000000000000000000000800000000008400000000000000004000000000200",
      "type": "0x2",
      "transactionHash": "0xa1203a6d0787b2b2413c92024524fbcfde1c61c797fc87cdb839b2217e74419f",
      "transactionIndex": "0x5",
      "blockHash": "0x810e615710a04e7ced674509e448e31d43610076a316b83cfd5e3aac21890b27",
      "blockNumber": "0xff97a4",
      "gasUsed": "0x6b471",
      "effectiveGasPrice": "0x64cbace5",
      "from": "0x48CA32c738DC2Af6cE8bB33934fF1b59cF8B1831",
      "to": "0x376120A6c56c5CA10a9b5eC8F7aFBC2d576f2C35",
      "contractAddress": null,
      "l1BaseFeeScalar": "0x44d",
      "l1BlobBaseFee": "0x1",
      "l1BlobBaseFeeScalar": "0xa118b",
      "l1Fee": "0x2031da0bf",
      "l1GasPrice": "0xeda7949e",
      "l1GasUsed": "0x7b0"
    }
  ],
  "libraries": [],
  "pending": [],
  "returns": {},
  "timestamp": 1729269293,
  "chain": 84532,
  "commit": "a7e4e61"
}