{
  "transactions": [
    {
      "hash": "0x724302b6c697743eef6516178aedf37337b457808428f97b1d82eef0579d8b95",
      "transactionType": "CALL",
      "contractName": null,
      "contractAddress": "0xe175053257B6A0Fe7EAE537499Ba4465065DdD88",
      "function": "createProgram(uint256,address,address,address)",
      "arguments": [
        "5515",
        "0x48CA32c738DC2Af6cE8bB33934fF1b59cF8B1831",
        "0xBc2cfCd4c615Ff1d06f1d07b37E3652b15bd40A2",
        "0x3A193aC8FcaCCDa817c174D04081C105154a8441"
      ],
      "transaction": {
        "from": "0x48CA32c738DC2Af6cE8bB33934fF1b59cF8B1831",
        "to": "0xe175053257B6A0Fe7EAE537499Ba4465065DdD88",
        "gas": "0x9422d",
        "value": "0x0",
        "input": "0x0fe0d300000000000000000000000000000000000000000000000000000000000000158b00000000000000000000000048ca32c738dc2af6ce8bb33934ff1b59cf8b1831000000000000000000000000bc2cfcd4c615ff1d06f1d07b37e3652b15bd40a20000000000000000000000003a193ac8fcaccda817c174d04081c105154a8441",
        "nonce": "0x42",
        "chainId": "0x14a34"
      },
      "additionalContracts": [],
      "isFixedGasLimit": false
    }
  ],
  "receipts": [
    {
      "status": "0x1",
      "cumulativeGasUsed": "0x1fe990",
      "logs": [
        {
          "address": "0x673ef90FeC4286A31d5777602017ba7FE735C016",
          "topics": [
            "0x1cf3b03a6cf19fa2baba4df148e9dcabedea7f8a5c07840e207e5c089be95d3e",
            "0x000000000000000000000000507c3a7c6ccc253884a2e3a3ee2a211cc7e796a6"
          ],
          "data": "0x",
          "blockHash": "0x263d7bf14845ff9943b68bb28e35940586260234ffea953e09dfc027eb5ab6c6",
          "blockNumber": "0x107600b",
          "transactionHash": "0x724302b6c697743eef6516178aedf37337b457808428f97b1d82eef0579d8b95",
          "transactionIndex": "0xd",
          "logIndex": "0x15",
          "removed": false
        },
        {
          "address": "0x673ef90FeC4286A31d5777602017ba7FE735C016",
          "topics": [
            "0x7f26b83ff96e1f2b6a682f133852f6798a09c465da95921460cefb3847402498"
          ],
          "data": "0x0000000000000000000000000000000000000000000000000000000000000001",
          "blockHash": "0x263d7bf14845ff9943b68bb28e35940586260234ffea953e09dfc027eb5ab6c6",
          "blockNumber": "0x107600b",
          "transactionHash": "0x724302b6c697743eef6516178aedf37337b457808428f97b1d82eef0579d8b95",
          "transactionIndex": "0xd",
          "logIndex": "0x16",
          "removed": false
        },
        {
          "address": "0x3A193aC8FcaCCDa817c174D04081C105154a8441",
          "topics": [
            "0x30f416fa68fca014a0f334464c64b000ba53e99b6d2afdea9d5ca756372d5985",
            "0x00000000000000000000000053f4f44c813dc380182d0b2b67fe5832a12b97f8",
            "0x000000000000000000000000673ef90fec4286a31d5777602017ba7fe735c016"
          ],
          "data": "0x0000000000000000000000000000000000000000000000000000000000000000",
          "blockHash": "0x263d7bf14845ff9943b68bb28e35940586260234ffea953e09dfc027eb5ab6c6",
          "blockNumber": "0x107600b",
          "transactionHash": "0x724302b6c697743eef6516178aedf37337b457808428f97b1d82eef0579d8b95",
          "transactionIndex": "0xd",
          "logIndex": "0x17",
          "removed": false
        },
        {
          "address": "0xe64f81d5dDdA1c7172e5C6d964E8ef1BD82D8704",
          "topics": [
            "0xddf252ad1be2c89b69c2b068fc378daa952ba7f163c4a11628f55a4df523b3ef",
            "0x0000000000000000000000000000000000000000000000000000000000000000",
            "0x000000000000000000000000e175053257b6a0fe7eae537499ba4465065ddd88",
            "0xdb48e2b15613216ceed45fcf19682d59a5953d1d2c2579bd0516cfd4cab57d44"
          ],
          "data": "0x",
          "blockHash": "0x263d7bf14845ff9943b68bb28e35940586260234ffea953e09dfc027eb5ab6c6",
          "blockNumber": "0x107600b",
          "transactionHash": "0x724302b6c697743eef6516178aedf37337b457808428f97b1d82eef0579d8b95",
          "transactionIndex": "0xd",
          "logIndex": "0x18",
          "removed": false
        },
        {
          "address": "0x53F4f44C813Dc380182d0b2b67fe5832A12B97f8",
          "topics": [
            "0x9c5d829b9b23efc461f9aeef91979ec04bb903feb3bee4f26d22114abfc7335b",
            "0x0000000000000000000000003a193ac8fcaccda817c174d04081c105154a8441",
            "0x000000000000000000000000e175053257b6a0fe7eae537499ba4465065ddd88"
          ],
          "data": "0x000000000000000000000000673ef90fec4286a31d5777602017ba7fe735c016",
          "blockHash": "0x263d7bf14845ff9943b68bb28e35940586260234ffea953e09dfc027eb5ab6c6",
          "blockNumber": "0x107600b",
          "transactionHash": "0x724302b6c697743eef6516178aedf37337b457808428f97b1d82eef0579d8b95",
          "transactionIndex": "0xd",
          "logIndex": "0x19",
          "removed": false
        }
      ],
      "logsBloom": "0x000000020000001000000000000000000000004000800000000000000000000000000a00000000000000000004000000000000000000000000000000008000000000000400000000048000081010000000000004000000000000000001000000000001000200000000000000000008000000000000000000000000100000000000000002000000008000200000000800000000000000800000000000000040008200000000000010000000000004000020000084000000000000000040000200000000020000000008000000001c0001000000000000000004800000000020000000000000000000000000000120000000000000000000000004000000000200",
      "type": "0x2",
      "transactionHash": "0x724302b6c697743eef6516178aedf37337b457808428f97b1d82eef0579d8b95",
      "transactionIndex": "0xd",
      "blockHash": "0x263d7bf14845ff9943b68bb28e35940586260234ffea953e09dfc027eb5ab6c6",
      "blockNumber": "0x107600b",
      "gasUsed": "0x6b476",
      "effectiveGasPrice": "0xf43bf",
      "from": "0x48CA32c738DC2Af6cE8bB33934fF1b59cF8B1831",
      "to": "0xe175053257B6A0Fe7EAE537499Ba4465065DdD88",
      "contractAddress": null,
      "l1BaseFeeScalar": "0x44d",
      "l1BlobBaseFee": "0x1",
      "l1BlobBaseFeeScalar": "0xa118b",
      "l1Fee": "0x1688319e9",
      "l1GasPrice": "0xa653918d",
      "l1GasUsed": "0x7b0"
    }
  ],
  "libraries": [],
  "pending": [],
  "returns": {},
  "timestamp": 1730289404,
  "chain": 84532,
  "commit": "8232682"
}