{
  "transactions": [
    {
      "hash": "0x4c10eee9d811da60f552ad65c6ce6778ac27be73e2abe7da878b66875e489ae0",
      "transactionType": "CALL",
      "contractName": null,
      "contractAddress": "0x613D7905f7a0cc3D4df20d59b7519Ce0E12605dc",
      "function": "createProgram(uint256,address,address,address)",
      "arguments": [
        "3756",
        "0x48CA32c738DC2Af6cE8bB33934fF1b59cF8B1831",
        "0xBc2cfCd4c615Ff1d06f1d07b37E3652b15bd40A2",
        "0x3A193aC8FcaCCDa817c174D04081C105154a8441"
      ],
      "transaction": {
        "from": "0x48CA32c738DC2Af6cE8bB33934fF1b59cF8B1831",
        "to": "0x613D7905f7a0cc3D4df20d59b7519Ce0E12605dc",
        "gas": "0x9cd90",
        "value": "0x0",
        "input": "0x0fe0d3000000000000000000000000000000000000000000000000000000000000000eac00000000000000000000000048ca32c738dc2af6ce8bb33934ff1b59cf8b1831000000000000000000000000bc2cfcd4c615ff1d06f1d07b37e3652b15bd40a20000000000000000000000003a193ac8fcaccda817c174d04081c105154a8441",
        "nonce": "0x35",
        "chainId": "0x14a34"
      },
      "additionalContracts": [],
      "isFixedGasLimit": false
    }
  ],
  "receipts": [
    {
      "status": "0x1",
      "cumulativeGasUsed": "0x2e7f38",
      "logs": [
        {
          "address": "0x10451Ea758ee9cF51ed1934B544dFAa117F184E8",
          "topics": [
            "0x1cf3b03a6cf19fa2baba4df148e9dcabedea7f8a5c07840e207e5c089be95d3e",
            "0x000000000000000000000000507c3a7c6ccc253884a2e3a3ee2a211cc7e796a6"
          ],
          "data": "0x",
          "blockHash": "0xd5b4395939f436fed89ae13b4d034a89992f1d785139642a9bd52bd58f69561b",
          "blockNumber": "0x106b7fb",
          "transactionHash": "0x4c10eee9d811da60f552ad65c6ce6778ac27be73e2abe7da878b66875e489ae0",
          "transactionIndex": "0x8",
          "logIndex": "0x11",
          "removed": false
        },
        {
          "address": "0x10451Ea758ee9cF51ed1934B544dFAa117F184E8",
          "topics": [
            "0x7f26b83ff96e1f2b6a682f133852f6798a09c465da95921460cefb3847402498"
          ],
          "data": "0x0000000000000000000000000000000000000000000000000000000000000001",
          "blockHash": "0xd5b4395939f436fed89ae13b4d034a89992f1d785139642a9bd52bd58f69561b",
          "blockNumber": "0x106b7fb",
          "transactionHash": "0x4c10eee9d811da60f552ad65c6ce6778ac27be73e2abe7da878b66875e489ae0",
          "transactionIndex": "0x8",
          "logIndex": "0x12",
          "removed": false
        },
        {
          "address": "0x3A193aC8FcaCCDa817c174D04081C105154a8441",
          "topics": [
            "0x30f416fa68fca014a0f334464c64b000ba53e99b6d2afdea9d5ca756372d5985",
            "0x00000000000000000000000053f4f44c813dc380182d0b2b67fe5832a12b97f8",
            "0x00000000000000000000000010451ea758ee9cf51ed1934b544dfaa117f184e8"
          ],
          "data": "0x0000000000000000000000000000000000000000000000000000000000000000",
          "blockHash": "0xd5b4395939f436fed89ae13b4d034a89992f1d785139642a9bd52bd58f69561b",
          "blockNumber": "0x106b7fb",
          "transactionHash": "0x4c10eee9d811da60f552ad65c6ce6778ac27be73e2abe7da878b66875e489ae0",
          "transactionIndex": "0x8",
          "logIndex": "0x13",
          "removed": false
        },
        {
          "address": "0xe64f81d5dDdA1c7172e5C6d964E8ef1BD82D8704",
          "topics": [
            "0xddf252ad1be2c89b69c2b068fc378daa952ba7f163c4a11628f55a4df523b3ef",
            "0x0000000000000000000000000000000000000000000000000000000000000000",
            "0x000000000000000000000000613d7905f7a0cc3d4df20d59b7519ce0e12605dc",
            "0xbccfbbe3302bd98a8ddff6a1f6c9c15f52e46eb2abf63064db230b7fbee4ce4f"
          ],
          "data": "0x",
          "blockHash": "0xd5b4395939f436fed89ae13b4d034a89992f1d785139642a9bd52bd58f69561b",
          "blockNumber": "0x106b7fb",
          "transactionHash": "0x4c10eee9d811da60f552ad65c6ce6778ac27be73e2abe7da878b66875e489ae0",
          "transactionIndex": "0x8",
          "logIndex": "0x14",
          "removed": false
        },
        {
          "address": "0x53F4f44C813Dc380182d0b2b67fe5832A12B97f8",
          "topics": [
            "0x9c5d829b9b23efc461f9aeef91979ec04bb903feb3bee4f26d22114abfc7335b",
            "0x0000000000000000000000003a193ac8fcaccda817c174d04081c105154a8441",
            "0x000000000000000000000000613d7905f7a0cc3d4df20d59b7519ce0e12605dc"
          ],
          "data": "0x00000000000000000000000010451ea758ee9cf51ed1934b544dfaa117f184e8",
          "blockHash": "0xd5b4395939f436fed89ae13b4d034a89992f1d785139642a9bd52bd58f69561b",
          "blockNumber": "0x106b7fb",
          "transactionHash": "0x4c10eee9d811da60f552ad65c6ce6778ac27be73e2abe7da878b66875e489ae0",
          "transactionIndex": "0x8",
          "logIndex": "0x15",
          "removed": false
        }
      ],
      "logsBloom": "0x000000000000001000000400000000000000004000800000000000000000000000000800000000000000000000000000000000000000000000000000008000000000000400000000048000081010000000000004000000000000000001000000000010000200000080000000080008000000000000000000000000100000000000000002000000002000200000000800000000000000800000000000000040000200000000000000000000000004000020001004000000000040000010000000000000020000000008000000001c0101200000000000000024800000000020000000000000000000000040000000000000000000000000000004000000000200",
      "type": "0x2",
      "transactionHash": "0x4c10eee9d811da60f552ad65c6ce6778ac27be73e2abe7da878b66875e489ae0",
      "transactionIndex": "0x8",
      "blockHash": "0xd5b4395939f436fed89ae13b4d034a89992f1d785139642a9bd52bd58f69561b",
      "blockNumber": "0x106b7fb",
      "gasUsed": "0x6b46f",
      "effectiveGasPrice": "0xf43a5",
      "from": "0x48CA32c738DC2Af6cE8bB33934fF1b59cF8B1831",
      "to": "0x613D7905f7a0cc3D4df20d59b7519Ce0E12605dc",
      "contractAddress": null,
      "l1BaseFeeScalar": "0x44d",
      "l1BlobBaseFee": "0x1",
      "l1BlobBaseFeeScalar": "0xa118b",
      "l1Fee": "0x13dca284f",
      "l1GasPrice": "0x929daecc",
      "l1GasUsed": "0x7b0"
    }
  ],
  "libraries": [],
  "pending": [],
  "returns": {},
  "timestamp": 1730203355,
  "chain": 84532,
  "commit": "94a5f80"
}