{
  "transactions": [
    {
      "hash": null,
      "transactionType": "CALL",
      "contractName": null,
      "contractAddress": "0x7cEC6490CEfF2768A1ecfc6d71C1dF819A8a6E3c",
      "function": "createProgram(uint8,address,address,address)",
      "arguments": [
        "0",
        "0x48CA32c738DC2Af6cE8bB33934fF1b59cF8B1831",
        "0x048E94a829f6E464aA2B0d3aB21855bF915a7E2C",
        "0x3A193aC8FcaCCDa817c174D04081C105154a8441"
      ],
      "transaction": {
        "from": "0x48CA32c738DC2Af6cE8bB33934fF1b59cF8B1831",
        "to": "0x7cEC6490CEfF2768A1ecfc6d71C1dF819A8a6E3c",
        "gas": "0xb0d43",
        "value": "0x0",
        "input": "0x6b6282a6000000000000000000000000000000000000000000000000000000000000000000000000000000000000000048ca32c738dc2af6ce8bb33934ff1b59cf8b1831000000000000000000000000048e94a829f6e464aa2b0d3ab21855bf915a7e2c0000000000000000000000003a193ac8fcaccda817c174d04081c105154a8441",
        "nonce": "0x9",
        "chainId": "0x14a34"
      },
      "additionalContracts": [],
      "isFixedGasLimit": false
    },
    {
      "hash": null,
      "transactionType": "CALL",
      "contractName": null,
      "contractAddress": "0x3A193aC8FcaCCDa817c174D04081C105154a8441",
      "function": "transfer(address,uint256)",
      "arguments": [
        "0x7269B0c7C831598465a9EB17F6c5a03331353dAF",
        "100000000000000000000000000"
      ],
      "transaction": {
        "from": "0x48CA32c738DC2Af6cE8bB33934fF1b59cF8B1831",
        "to": "0x3A193aC8FcaCCDa817c174D04081C105154a8441",
        "gas": "0x45ac1",
        "value": "0x0",
        "input": "0xa9059cbb0000000000000000000000007269b0c7c831598465a9eb17f6c5a03331353daf00000000000000000000000000000000000000000052b7d2dcc80cd2e4000000",
        "nonce": "0xa",
        "chainId": "0x14a34"
      },
      "additionalContracts": [],
      "isFixedGasLimit": false
    }
  ],
  "receipts": [],
  "libraries": [],
  "pending": [],
  "returns": {},
  "timestamp": 1728914538,
  "chain": 84532,
  "commit": "07bf7f8"
}