{
  "transactions": [
    {
      "hash": "0x6d909ad0bb7c090ac9ae1e58cf194e69fe43adca24126a9fbedfcfbdcc09dadf",
      "transactionType": "CALL",
      "contractName": null,
      "contractAddress": "0x39b890FD826cAED6e56D890398441400f691f340",
      "function": "createProgram(uint256,address,address,address)",
      "arguments": [
        "5515",
        "0x48CA32c738DC2Af6cE8bB33934fF1b59cF8B1831",
        "0xBc2cfCd4c615Ff1d06f1d07b37E3652b15bd40A2",
        "0x3A193aC8FcaCCDa817c174D04081C105154a8441"
      ],
      "transaction": {
        "from": "0x48CA32c738DC2Af6cE8bB33934fF1b59cF8B1831",
        "to": "0x39b890FD826cAED6e56D890398441400f691f340",
        "gas": "0x9ccd6",
        "value": "0x0",
        "input": "0x0fe0d300000000000000000000000000000000000000000000000000000000000000158b00000000000000000000000048ca32c738dc2af6ce8bb33934ff1b59cf8b1831000000000000000000000000bc2cfcd4c615ff1d06f1d07b37e3652b15bd40a20000000000000000000000003a193ac8fcaccda817c174d04081c105154a8441",
        "nonce": "0x2b",
        "chainId": "0x14a34"
      },
      "additionalContracts": [],
      "isFixedGasLimit": false
    }
  ],
  "receipts": [
    {
      "status": "0x1",
      "cumulativeGasUsed": "0x11fba2",
      "logs": [
        {
          "address": "0xa69AfcE8B6f1B3D521932372477047fBf92A2539",
          "topics": [
            "0x1cf3b03a6cf19fa2baba4df148e9dcabedea7f8a5c07840e207e5c089be95d3e",
            "0x000000000000000000000000507c3a7c6ccc253884a2e3a3ee2a211cc7e796a6"
          ],
          "data": "0x",
          "blockHash": "0x41615c751a19d5cf50afa8198419bc48bf4ed7f51b35dd3b44d152d134e046ae",
          "blockNumber": "0x103526a",
          "transactionHash": "0x6d909ad0bb7c090ac9ae1e58cf194e69fe43adca24126a9fbedfcfbdcc09dadf",
          "transactionIndex": "0x9",
          "logIndex": "0x9",
          "removed": false
        },
        {
          "address": "0xa69AfcE8B6f1B3D521932372477047fBf92A2539",
          "topics": [
            "0x7f26b83ff96e1f2b6a682f133852f6798a09c465da95921460cefb3847402498"
          ],
          "data": "0x0000000000000000000000000000000000000000000000000000000000000001",
          "blockHash": "0x41615c751a19d5cf50afa8198419bc48bf4ed7f51b35dd3b44d152d134e046ae",
          "blockNumber": "0x103526a",
          "transactionHash": "0x6d909ad0bb7c090ac9ae1e58cf194e69fe43adca24126a9fbedfcfbdcc09dadf",
          "transactionIndex": "0x9",
          "logIndex": "0xa",
          "removed": false
        },
        {
          "address": "0x3A193aC8FcaCCDa817c174D04081C105154a8441",
          "topics": [
            "0x30f416fa68fca014a0f334464c64b000ba53e99b6d2afdea9d5ca756372d5985",
            "0x00000000000000000000000053f4f44c813dc380182d0b2b67fe5832a12b97f8",
            "0x000000000000000000000000a69afce8b6f1b3d521932372477047fbf92a2539"
          ],
          "data": "0x0000000000000000000000000000000000000000000000000000000000000000",
          "blockHash": "0x41615c751a19d5cf50afa8198419bc48bf4ed7f51b35dd3b44d152d134e046ae",
          "blockNumber": "0x103526a",
          "transactionHash": "0x6d909ad0bb7c090ac9ae1e58cf194e69fe43adca24126a9fbedfcfbdcc09dadf",
          "transactionIndex": "0x9",
          "logIndex": "0xb",
          "removed": false
        },
        {
          "address": "0xe64f81d5dDdA1c7172e5C6d964E8ef1BD82D8704",
          "topics": [
            "0xddf252ad1be2c89b69c2b068fc378daa952ba7f163c4a11628f55a4df523b3ef",
            "0x0000000000000000000000000000000000000000000000000000000000000000",
            "0x00000000000000000000000039b890fd826caed6e56d890398441400f691f340",
            "0xde7f7437b6abcecf46aec2c6eaf46b93405b4cf2e4f5e2f13f067105a3ccdd49"
          ],
          "data": "0x",
          "blockHash": "0x41615c751a19d5cf50afa8198419bc48bf4ed7f51b35dd3b44d152d134e046ae",
          "blockNumber": "0x103526a",
          "transactionHash": "0x6d909ad0bb7c090ac9ae1e58cf194e69fe43adca24126a9fbedfcfbdcc09dadf",
          "transactionIndex": "0x9",
          "logIndex": "0xc",
          "removed": false
        },
        {
          "address": "0x53F4f44C813Dc380182d0b2b67fe5832A12B97f8",
          "topics": [
            "0x9c5d829b9b23efc461f9aeef91979ec04bb903feb3bee4f26d22114abfc7335b",
            "0x0000000000000000000000003a193ac8fcaccda817c174d04081c105154a8441",
            "0x00000000000000000000000039b890fd826caed6e56d890398441400f691f340"
          ],
          "data": "0x000000000000000000000000a69afce8b6f1b3d521932372477047fbf92a2539",
          "blockHash": "0x41615c751a19d5cf50afa8198419bc48bf4ed7f51b35dd3b44d152d134e046ae",
          "blockNumber": "0x103526a",
          "transactionHash": "0x6d909ad0bb7c090ac9ae1e58cf194e69fe43adca24126a9fbedfcfbdcc09dadf",
          "transactionIndex": "0x9",
          "logIndex": "0xd",
          "removed": false
        }
      ],
      "logsBloom": "0x000408000000001000000000000000000000004000800000000000000000000000000800000000000000000000000000000000000000000000000000008000000000000402000000048000081010000000000004000000000400000001000000000000040200000004000000000008000000000000080000000000100000000000000002000000000000200000000800000000000000800000000000000040000200000000000000000000000004000820000004000000000000000000000000000000022000000208000000001c0001000000000000000004800000000020000000000000000100000000000008000000000000000000000004000000000200",
      "type": "0x2",
      "transactionHash": "0x6d909ad0bb7c090ac9ae1e58cf194e69fe43adca24126a9fbedfcfbdcc09dadf",
      "transactionIndex": "0x9",
      "blockHash": "0x41615c751a19d5cf50afa8198419bc48bf4ed7f51b35dd3b44d152d134e046ae",
      "blockNumber": "0x103526a",
      "gasUsed": "0x6b3f0",
      "effectiveGasPrice": "0x1342b047",
      "from": "0x48CA32c738DC2Af6cE8bB33934fF1b59cF8B1831",
      "to": "0x39b890FD826cAED6e56D890398441400f691f340",
      "contractAddress": null,
      "l1BaseFeeScalar": "0x44d",
      "l1BlobBaseFee": "0x1",
      "l1BlobBaseFeeScalar": "0xa118b",
      "l1Fee": "0x18d500d88",
      "l1GasPrice": "0xb6112906",
      "l1GasUsed": "0x7be"
    }
  ],
  "libraries": [],
  "pending": [],
  "returns": {},
  "timestamp": 1729758138,
  "chain": 84532,
  "commit": "dd8ae80"
}