{
  "transactions": [
    {
      "hash": "0xb1ecf597fdfca022d7a25a21ca162825c647d73b41298ab8e87f591dc0b58a21",
      "transactionType": "CALL",
      "contractName": null,
      "contractAddress": "0x376120A6c56c5CA10a9b5eC8F7aFBC2d576f2C35",
      "function": "createProgram(uint96,address,address,address)",
      "arguments": [
        "2",
        "0x48CA32c738DC2Af6cE8bB33934fF1b59cF8B1831",
        "0x048E94a829f6E464aA2B0d3aB21855bF915a7E2C",
        "0x3A193aC8FcaCCDa817c174D04081C105154a8441"
      ],
      "transaction": {
        "from": "0x48CA32c738DC2Af6cE8bB33934fF1b59cF8B1831",
        "to": "0x376120A6c56c5CA10a9b5eC8F7aFBC2d576f2C35",
        "gas": "0x9cd92",
        "value": "0x0",
        "input": "0xd05f4f00000000000000000000000000000000000000000000000000000000000000000200000000000000000000000048ca32c738dc2af6ce8bb33934ff1b59cf8b1831000000000000000000000000048e94a829f6e464aa2b0d3ab21855bf915a7e2c0000000000000000000000003a193ac8fcaccda817c174d04081c105154a8441",
        "nonce": "0x1c",
        "chainId": "0x14a34"
      },
      "additionalContracts": [],
      "isFixedGasLimit": false
    }
  ],
  "receipts": [
    {
      "status": "0x1",
      "cumulativeGasUsed": "0x5ec1b9",
      "logs": [
        {
          "address": "0x1174Ed4b731Fb26548f14D8d5fd484efbf7dbC16",
          "topics": [
            "0x1cf3b03a6cf19fa2baba4df148e9dcabedea7f8a5c07840e207e5c089be95d3e",
            "0x000000000000000000000000507c3a7c6ccc253884a2e3a3ee2a211cc7e796a6"
          ],
          "data": "0x",
          "blockHash": "0x471ed836f4684cec7532c6f13a3337d035911c21fa19b2aa83930465fe6bf177",
          "blockNumber": "0xff97b1",
          "transactionHash": "0xb1ecf597fdfca022d7a25a21ca162825c647d73b41298ab8e87f591dc0b58a21",
          "transactionIndex": "0x14",
          "logIndex": "0x32",
          "removed": false
        },
        {
          "address": "0x1174Ed4b731Fb26548f14D8d5fd484efbf7dbC16",
          "topics": [
            "0x7f26b83ff96e1f2b6a682f133852f6798a09c465da95921460cefb3847402498"
          ],
          "data": "0x0000000000000000000000000000000000000000000000000000000000000001",
          "blockHash": "0x471ed836f4684cec7532c6f13a3337d035911c21fa19b2aa83930465fe6bf177",
          "blockNumber": "0xff97b1",
          "transactionHash": "0xb1ecf597fdfca022d7a25a21ca162825c647d73b41298ab8e87f591dc0b58a21",
          "transactionIndex": "0x14",
          "logIndex": "0x33",
          "removed": false
        },
        {
          "address": "0x3A193aC8FcaCCDa817c174D04081C105154a8441",
          "topics": [
            "0x30f416fa68fca014a0f334464c64b000ba53e99b6d2afdea9d5ca756372d5985",
            "0x00000000000000000000000053f4f44c813dc380182d0b2b67fe5832a12b97f8",
            "0x0000000000000000000000001174ed4b731fb26548f14d8d5fd484efbf7dbc16"
          ],
          "data": "0x0000000000000000000000000000000000000000000000000000000000000000",
          "blockHash": "0x471ed836f4684cec7532c6f13a3337d035911c21fa19b2aa83930465fe6bf177",
          "blockNumber": "0xff97b1",
          "transactionHash": "0xb1ecf597fdfca022d7a25a21ca162825c647d73b41298ab8e87f591dc0b58a21",
          "transactionIndex": "0x14",
          "logIndex": "0x34",
          "removed": false
        },
        {
          "address": "0xe64f81d5dDdA1c7172e5C6d964E8ef1BD82D8704",
          "topics": [
            "0xddf252ad1be2c89b69c2b068fc378daa952ba7f163c4a11628f55a4df523b3ef",
            "0x0000000000000000000000000000000000000000000000000000000000000000",
            "0x000000000000000000000000376120a6c56c5ca10a9b5ec8f7afbc2d576f2c35",
            "0xaab708c0b4f822546abe760f6c6e253f5a122f581117a01e7bd1d07e9a74fbb6"
          ],
          "data": "0x",
          "blockHash": "0x471ed836f4684cec7532c6f13a3337d035911c21fa19b2aa83930465fe6bf177",
          "blockNumber": "0xff97b1",
          "transactionHash": "0xb1ecf597fdfca022d7a25a21ca162825c647d73b41298ab8e87f591dc0b58a21",
          "transactionIndex": "0x14",
          "logIndex": "0x35",
          "removed": false
        },
        {
          "address": "0x53F4f44C813Dc380182d0b2b67fe5832A12B97f8",
          "topics": [
            "0x9c5d829b9b23efc461f9aeef91979ec04bb903feb3bee4f26d22114abfc7335b",
            "0x0000000000000000000000003a193ac8fcaccda817c174d04081c105154a8441",
            "0x000000000000000000000000376120a6c56c5ca10a9b5ec8f7afbc2d576f2c35"
          ],
          "data": "0x0000000000000000000000001174ed4b731fb26548f14d8d5fd484efbf7dbc16",
          "blockHash": "0x471ed836f4684cec7532c6f13a3337d035911c21fa19b2aa83930465fe6bf177",
          "blockNumber": "0xff97b1",
          "transactionHash": "0xb1ecf597fdfca022d7a25a21ca162825c647d73b41298ab8e87f591dc0b58a21",
          "transactionIndex": "0x14",
          "logIndex": "0x36",
          "removed": false
        }
      ],
      "logsBloom": "0x080000000000001000000000000010000000004000800000000000000000000000000800000000000000000000000000000004000000000000000000008000000000004400000000048000081010000000000004000000000000000001000000000000000200000800000000000008000000400000000000000000100000000000000002000000000000200000010800000000000000800000000000000040000200000000000000000000000004000020000004000200000000000000000000000000020000000008000000001c0001000000000000000004800000000020000000000000000000000000800000000008000000000000000804000000000200",
      "type": "0x2",
      "transactionHash": "0xb1ecf597fdfca022d7a25a21ca162825c647d73b41298ab8e87f591dc0b58a21",
      "transactionIndex": "0x14",
      "blockHash": "0x471ed836f4684cec7532c6f13a3337d035911c21fa19b2aa83930465fe6bf177",
      "blockNumber": "0xff97b1",
      "gasUsed": "0x6b471",
      "effectiveGasPrice": "0x6474e50c",
      "from": "0x48CA32c738DC2Af6cE8bB33934fF1b59cF8B1831",
      "to": "0x376120A6c56c5CA10a9b5eC8F7aFBC2d576f2C35",
      "contractAddress": null,
      "l1BaseFeeScalar": "0x44d",
      "l1BlobBaseFee": "0x1",
      "l1BlobBaseFeeScalar": "0xa118b",
      "l1Fee": "0x2437d7a34",
      "l1GasPrice": "0x10b5ac004",
      "l1GasUsed": "0x7b0"
    }
  ],
  "libraries": [],
  "pending": [],
  "returns": {},
  "timestamp": 1729269319,
  "chain": 84532,
  "commit": "a7e4e61"
}