{
  "transactions": [
    {
      "hash": "0x8a66756a46e706dfa4bfd928f7f41bd0bc8dfb5b4efbe55618599bb9e19e4c50",
      "transactionType": "CREATE",
      "contractName": "PureSuperToken",
      "contractAddress": "0x3A193aC8FcaCCDa817c174D04081C105154a8441",
      "function": null,
      "arguments": null,
      "transaction": {
        "from": "0x48CA32c738DC2Af6cE8bB33934fF1b59cF8B1831",
        "gas": "0x640f9",
        "value": "0x0",
        "input": "0x6080604052348015600f57600080fd5b506104bf8061001f6000396000f3fe60806040526004361061002d5760003560e01c80634a0687ef14610044578063b119490e146100645761003c565b3661003c5761003a610084565b005b61003a610084565b34801561005057600080fd5b5061003a61005f3660046102bc565b610096565b34801561007057600080fd5b5061003a61007f366004610335565b61019c565b61009461008f610269565b610298565b565b6001600160a01b0381166100f15760405162461bcd60e51b815260206004820152601760248201527f5555505350726f78793a207a65726f206164647265737300000000000000000060448201526064015b60405180910390fd5b600061011b7f360894a13ba1a3210667c828492db98dca3e2076cc3735a920a3ca505d382bbc5490565b6001600160a01b0316146101715760405162461bcd60e51b815260206004820152601e60248201527f5555505350726f78793a20616c726561647920696e697469616c697a6564000060448201526064016100e8565b610199817f360894a13ba1a3210667c828492db98dca3e2076cc3735a920a3ca505d382bbc55565b50565b6040516285fc1360e71b815230906342fe0980906101ca906000906012908a908a908a908a906004016103d7565b600060405180830381600087803b1580156101e457600080fd5b505af11580156101f8573d6000803e3d6000fd5b50506040805160008152602081019182905263c68d428360e01b90915230925063c68d42839150610230903390859060248101610425565b600060405180830381600087803b15801561024a57600080fd5b505af115801561025e573d6000803e3d6000fd5b505050505050505050565b60006102937f360894a13ba1a3210667c828492db98dca3e2076cc3735a920a3ca505d382bbc5490565b905090565b3660008037600080366000845af43d6000803e8080156102b7573d6000f35b3d6000fd5b6000602082840312156102ce57600080fd5b81356001600160a01b03811681146102e557600080fd5b9392505050565b60008083601f8401126102fe57600080fd5b50813567ffffffffffffffff81111561031657600080fd5b60208301915083602082850101111561032e57600080fd5b9250929050565b60008060008060006060868803121561034d57600080fd5b853567ffffffffffffffff81111561036457600080fd5b610370888289016102ec565b909650945050602086013567ffffffffffffffff81111561039057600080fd5b61039c888289016102ec565b96999598509660400135949350505050565b81835281816020850137506000828201602090810191909152601f909101601f19169091010190565b6001600160a01b038716815260ff8616602082015260806040820181905260009061040590830186886103ae565b82810360608401526104188185876103ae565b9998505050505050505050565b60018060a01b0384168152826020820152606060408201526000825180606084015260005b81811015610467576020818601810151608086840101520161044a565b506000608082850101526080601f19601f83011684010191505094935050505056fea2646970667358221220ffe076baa151de7d9fa56af56864f3888e5446a3ba463cb2fb436b85958932a064736f6c634300081a0033",
        "nonce": "0x0",
        "chainId": "0x14a34"
      },
      "additionalContracts": [],
      "isFixedGasLimit": false
    },
    {
      "hash": "0x3a71b604975641a079d11f8204a1d0cbbb2681670492584e1dcafa15fcf39457",
      "transactionType": "CALL",
      "contractName": null,
      "contractAddress": "0x7447E94Dfe3d804a9f46Bf12838d467c912C8F6C",
      "function": "initializeCustomSuperToken(address)",
      "arguments": [
        "0x3A193aC8FcaCCDa817c174D04081C105154a8441"
      ],
      "transaction": {
        "from": "0x48CA32c738DC2Af6cE8bB33934fF1b59cF8B1831",
        "to": "0x7447E94Dfe3d804a9f46Bf12838d467c912C8F6C",
        "gas": "0x1304d",
        "value": "0x0",
        "input": "0xd412d3440000000000000000000000003a193ac8fcaccda817c174d04081c105154a8441",
        "nonce": "0x1",
        "chainId": "0x14a34"
      },
      "additionalContracts": [],
      "isFixedGasLimit": false
    },
    {
      "hash": "0x433a00db97d7a5e2e9749b5c8be7fd823ede1c2fa92dd57fcf9054bd02694689",
      "transactionType": "CALL",
      "contractName": "PureSuperToken",
      "contractAddress": "0x3A193aC8FcaCCDa817c174D04081C105154a8441",
      "function": "initialize(string,string,uint256)",
      "arguments": [
        "fake F**** Token",
        "fF****",
        "1000000000000000000000000000"
      ],
      "transaction": {
        "from": "0x48CA32c738DC2Af6cE8bB33934fF1b59cF8B1831",
        "to": "0x3A193aC8FcaCCDa817c174D04081C105154a8441",
        "gas": "0x4f32f",
        "value": "0x0",
        "input": "0xb119490e000000000000000000000000000000000000000000000000000000000000006000000000000000000000000000000000000000000000000000000000000000a00000000000000000000000000000000000000000033b2e3c9fd0803ce8000000000000000000000000000000000000000000000000000000000000000000001066616b6520462a2a2a2a20546f6b656e00000000000000000000000000000000000000000000000000000000000000000000000000000000000000000000000666462a2a2a2a0000000000000000000000000000000000000000000000000000",
        "nonce": "0x2",
        "chainId": "0x14a34"
      },
      "additionalContracts": [],
      "isFixedGasLimit": false
    }
  ],
  "receipts": [
    {
      "status": "0x1",
      "cumulativeGasUsed": "0x3e6303",
      "logs": [],
      "logsBloom": "0x00000000000000000000000000000000000000000000000000000000000000000000000000000000000000000000000000000000000000000000000000000000000000000000000000000000000000000000000000000000000000000000000000000000000000000000000000000000000000000000000000000000000000000000000000000000000000000000000000000000000000000000000000000000000000000000000000000000000000000000000000000000000000000000000000000000000000000000000000000000000000000000000000000000000000000000000000000000000000000000000000000000000000000000000000000000",
      "type": "0x2",
      "transactionHash": "0x8a66756a46e706dfa4bfd928f7f41bd0bc8dfb5b4efbe55618599bb9e19e4c50",
      "transactionIndex": "0xe",
      "blockHash": "0xc16736dfe9afce838de113f47f1fe4cb76f546f711aedecdcd572671c6fe4b2b",
      "blockNumber": "0xfcb993",
      "gasUsed": "0x4cfd3",
      "effectiveGasPrice": "0x565fe982",
      "from": "0x48CA32c738DC2Af6cE8bB33934fF1b59cF8B1831",
      "to": null,
      "contractAddress": "0x3A193aC8FcaCCDa817c174D04081C105154a8441",
      "l1BaseFeeScalar": "0x44d",
      "l1BlobBaseFee": "0x1",
      "l1BlobBaseFeeScalar": "0xa118b",
      "l1Fee": "0x177d3f50119",
      "l1GasPrice": "0x19808b80db",
      "l1GasUsed": "0x3449"
    },
    {
      "status": "0x1",
      "cumulativeGasUsed": "0x3f3315",
      "logs": [
        {
          "address": "0x7447E94Dfe3d804a9f46Bf12838d467c912C8F6C",
          "topics": [
            "0x437790724a6e97b75d23117f28cdd4b1beeafc34f7a0911ef256e9334f4369a5",
            "0x0000000000000000000000003a193ac8fcaccda817c174d04081c105154a8441"
          ],
          "data": "0x",
          "blockHash": "0xc16736dfe9afce838de113f47f1fe4cb76f546f711aedecdcd572671c6fe4b2b",
          "blockNumber": "0xfcb993",
          "transactionHash": "0x3a71b604975641a079d11f8204a1d0cbbb2681670492584e1dcafa15fcf39457",
          "transactionIndex": "0xf",
          "logIndex": "0x3a",
          "removed": false
        }
      ],
      "logsBloom": "0x00000000000000000000000000000000000000400000000004000000000000001000080000000000000000000000000000000000000000000000000000000000000000000000000000000000000000000000000000000000000000000000000000000000000000000000000000000000000000000000000800000000000000000000040000000000000000000000000000000000000000000000000000000000000000000000000000000000000000000000000000000000000000000000000000000000000000000000000000100000000000000010000000000000000000000000010000000000000000000000000000000000000000000000000000000000",
      "type": "0x2",
      "transactionHash": "0x3a71b604975641a079d11f8204a1d0cbbb2681670492584e1dcafa15fcf39457",
      "transactionIndex": "0xf",
      "blockHash": "0xc16736dfe9afce838de113f47f1fe4cb76f546f711aedecdcd572671c6fe4b2b",
      "blockNumber": "0xfcb993",
      "gasUsed": "0xd012",
      "effectiveGasPrice": "0x565fe982",
      "from": "0x48CA32c738DC2Af6cE8bB33934fF1b59cF8B1831",
      "to": "0x7447E94Dfe3d804a9f46Bf12838d467c912C8F6C",
      "contractAddress": null,
      "l1BaseFeeScalar": "0x44d",
      "l1BlobBaseFee": "0x1",
      "l1BlobBaseFeeScalar": "0xa118b",
      "l1Fee": "0x2cecaf4c84",
      "l1GasPrice": "0x19808b80db",
      "l1GasUsed": "0x640"
    },
    {
      "status": "0x1",
      "cumulativeGasUsed": "0x42c881",
      "logs": [
        {
          "address": "0x1820a4B7618BdE71Dce8cdc73aAB6C95905faD24",
          "topics": [
            "0x93baa6efbd2244243bfee6ce4cfdd1d04fc4c0e9a786abd3a41313bd352db153",
            "0x0000000000000000000000003a193ac8fcaccda817c174d04081c105154a8441",
            "0xac7fbab5f54a3ca8194167523c6753bfeb96a445279294b6125b68cce2177054",
            "0x0000000000000000000000003a193ac8fcaccda817c174d04081c105154a8441"
          ],
          "data": "0x",
          "blockHash": "0xc16736dfe9afce838de113f47f1fe4cb76f546f711aedecdcd572671c6fe4b2b",
          "blockNumber": "0xfcb993",
          "transactionHash": "0x433a00db97d7a5e2e9749b5c8be7fd823ede1c2fa92dd57fcf9054bd02694689",
          "transactionIndex": "0x10",
          "logIndex": "0x3b",
          "removed": false
        },
        {
          "address": "0x1820a4B7618BdE71Dce8cdc73aAB6C95905faD24",
          "topics": [
            "0x93baa6efbd2244243bfee6ce4cfdd1d04fc4c0e9a786abd3a41313bd352db153",
            "0x0000000000000000000000003a193ac8fcaccda817c174d04081c105154a8441",
            "0xaea199e31a596269b42cdafd93407f14436db6e4cad65417994c2eb37381e05a",
            "0x0000000000000000000000003a193ac8fcaccda817c174d04081c105154a8441"
          ],
          "data": "0x",
          "blockHash": "0xc16736dfe9afce838de113f47f1fe4cb76f546f711aedecdcd572671c6fe4b2b",
          "blockNumber": "0xfcb993",
          "transactionHash": "0x433a00db97d7a5e2e9749b5c8be7fd823ede1c2fa92dd57fcf9054bd02694689",
          "transactionIndex": "0x10",
          "logIndex": "0x3c",
          "removed": false
        },
        {
          "address": "0x3A193aC8FcaCCDa817c174D04081C105154a8441",
          "topics": [
            "0xddf252ad1be2c89b69c2b068fc378daa952ba7f163c4a11628f55a4df523b3ef",
            "0x0000000000000000000000000000000000000000000000000000000000000000",
            "0x0000000000000000000000000000000000000000000000000000000000000000"
          ],
          "data": "0x0000000000000000000000000000000000000000000000000000000000000000",
          "blockHash": "0xc16736dfe9afce838de113f47f1fe4cb76f546f711aedecdcd572671c6fe4b2b",
          "blockNumber": "0xfcb993",
          "transactionHash": "0x433a00db97d7a5e2e9749b5c8be7fd823ede1c2fa92dd57fcf9054bd02694689",
          "transactionIndex": "0x10",
          "logIndex": "0x3d",
          "removed": false
        },
        {
          "address": "0x3A193aC8FcaCCDa817c174D04081C105154a8441",
          "topics": [
            "0x7e644d79422f17c01e4894b5f4f588d331ebfa28653d42ae832dc59e38c9798f",
            "0x0000000000000000000000000000000000000000000000000000000000000000",
            "0x0000000000000000000000000000000000000000000000000000000000000000"
          ],
          "data": "0x",
          "blockHash": "0xc16736dfe9afce838de113f47f1fe4cb76f546f711aedecdcd572671c6fe4b2b",
          "blockNumber": "0xfcb993",
          "transactionHash": "0x433a00db97d7a5e2e9749b5c8be7fd823ede1c2fa92dd57fcf9054bd02694689",
          "transactionIndex": "0x10",
          "logIndex": "0x3e",
          "removed": false
        },
        {
          "address": "0x3A193aC8FcaCCDa817c174D04081C105154a8441",
          "topics": [
            "0x7f26b83ff96e1f2b6a682f133852f6798a09c465da95921460cefb3847402498"
          ],
          "data": "0x0000000000000000000000000000000000000000000000000000000000000001",
          "blockHash": "0xc16736dfe9afce838de113f47f1fe4cb76f546f711aedecdcd572671c6fe4b2b",
          "blockNumber": "0xfcb993",
          "transactionHash": "0x433a00db97d7a5e2e9749b5c8be7fd823ede1c2fa92dd57fcf9054bd02694689",
          "transactionIndex": "0x10",
          "logIndex": "0x3f",
          "removed": false
        },
        {
          "address": "0x3A193aC8FcaCCDa817c174D04081C105154a8441",
          "topics": [
            "0x2fe5be0146f74c5bce36c0b80911af6c7d86ff27e89d5cfa61fc681327954e5d",
            "0x0000000000000000000000003a193ac8fcaccda817c174d04081c105154a8441",
            "0x00000000000000000000000048ca32c738dc2af6ce8bb33934ff1b59cf8b1831"
          ],
          "data": "0x0000000000000000000000000000000000000000033b2e3c9fd0803ce80000000000000000000000000000000000000000000000000000000000000000000060000000000000000000000000000000000000000000000000000000000000008000000000000000000000000000000000000000000000000000000000000000000000000000000000000000000000000000000000000000000000000000000000",
          "blockHash": "0xc16736dfe9afce838de113f47f1fe4cb76f546f711aedecdcd572671c6fe4b2b",
          "blockNumber": "0xfcb993",
          "transactionHash": "0x433a00db97d7a5e2e9749b5c8be7fd823ede1c2fa92dd57fcf9054bd02694689",
          "transactionIndex": "0x10",
          "logIndex": "0x40",
          "removed": false
        },
        {
          "address": "0x3A193aC8FcaCCDa817c174D04081C105154a8441",
          "topics": [
            "0xddf252ad1be2c89b69c2b068fc378daa952ba7f163c4a11628f55a4df523b3ef",
            "0x0000000000000000000000000000000000000000000000000000000000000000",
            "0x00000000000000000000000048ca32c738dc2af6ce8bb33934ff1b59cf8b1831"
          ],
          "data": "0x0000000000000000000000000000000000000000033b2e3c9fd0803ce8000000",
          "blockHash": "0xc16736dfe9afce838de113f47f1fe4cb76f546f711aedecdcd572671c6fe4b2b",
          "blockNumber": "0xfcb993",
          "transactionHash": "0x433a00db97d7a5e2e9749b5c8be7fd823ede1c2fa92dd57fcf9054bd02694689",
          "transactionIndex": "0x10",
          "logIndex": "0x41",
          "removed": false
        }
      ],
      "logsBloom": "0x00000000020000300000000004200000000000400000000000000020000000001040080000000000400000000080000000000000000000000000000000000000000000000000000004000008000000000000000000000000000000000000000000000000020400000000000000000800000010800020000000000010000000000000000000000000000000000000000000000000000080000000000000800000000000000020000000000000000400002000000000000000200800000000000000000002000000000000000000140002000000000400000000000000000020000000000000000000000000000000000002000000000010000000000000000000",
      "type": "0x2",
      "transactionHash": "0x433a00db97d7a5e2e9749b5c8be7fd823ede1c2fa92dd57fcf9054bd02694689",
      "transactionIndex": "0x10",
      "blockHash": "0xc16736dfe9afce838de113f47f1fe4cb76f546f711aedecdcd572671c6fe4b2b",
      "blockNumber": "0xfcb993",
      "gasUsed": "0x3956c",
      "effectiveGasPrice": "0x565fe982",
      "from": "0x48CA32c738DC2Af6cE8bB33934fF1b59cF8B1831",
      "to": "0x3A193aC8FcaCCDa817c174D04081C105154a8441",
      "contractAddress": null,
      "l1BaseFeeScalar": "0x44d",
      "l1BlobBaseFee": "0x1",
      "l1BlobBaseFeeScalar": "0xa118b",
      "l1Fee": "0x3384923e11",
      "l1GasPrice": "0x19808b80db",
      "l1GasUsed": "0x72a"
    }
  ],
  "libraries": [],
  "pending": [],
  "returns": {},
  "timestamp": 1728893451,
  "chain": 84532,
  "commit": "415cef1"
}