{
  "transactions": [
    {
      "hash": "0xef4efda06da12ebfb2ea4fb73adf5fa3fff234bc1807feea6fac3c2f4ff6176c",
      "transactionType": "CALL",
      "contractName": null,
      "contractAddress": "0xe175053257B6A0Fe7EAE537499Ba4465065DdD88",
      "function": "updateProgramSigner(uint256,address)",
      "arguments": [
        "3756",
        "0xBc2cfCd4c615Ff1d06f1d07b37E3652b15bd40A2"
      ],
      "transaction": {
        "from": "0x48CA32c738DC2Af6cE8bB33934fF1b59cF8B1831",
        "to": "0xe175053257B6A0Fe7EAE537499Ba4465065DdD88",
        "gas": "0xaa91",
        "value": "0x0",
        "input": "0x74d58c780000000000000000000000000000000000000000000000000000000000000eac000000000000000000000000bc2cfcd4c615ff1d06f1d07b37e3652b15bd40a2",
        "nonce": "0x47",
        "chainId": "0x14a34"
      },
      "additionalContracts": [],
      "isFixedGasLimit": false
    },
    {
      "hash": "0x22ea6a4ed5ae8b23c6b3650fc26e427c22fc19f440da899d3872e25ebb27aafe",
      "transactionType": "CALL",
      "contractName": null,
      "contractAddress": "0xe175053257B6A0Fe7EAE537499Ba4465065DdD88",
      "function": "updateProgramSigner(uint256,address)",
      "arguments": [
        "5514",
        "0xBc2cfCd4c615Ff1d06f1d07b37E3652b15bd40A2"
      ],
      "transaction": {
        "from": "0x48CA32c738DC2Af6cE8bB33934fF1b59cF8B1831",
        "to": "0xe175053257B6A0Fe7EAE537499Ba4465065DdD88",
        "gas": "0xaa91",
        "value": "0x0",
        "input": "0x74d58c78000000000000000000000000000000000000000000000000000000000000158a000000000000000000000000bc2cfcd4c615ff1d06f1d07b37e3652b15bd40a2",
        "nonce": "0x48",
        "chainId": "0x14a34"
      },
      "additionalContracts": [],
      "isFixedGasLimit": false
    },
    {
      "hash": "0xabcb340d428d05fe06ae5830402eeb7e444d10a6875ffab88f0b16e4b1415298",
      "transactionType": "CALL",
      "contractName": null,
      "contractAddress": "0xe175053257B6A0Fe7EAE537499Ba4465065DdD88",
      "function": "updateProgramSigner(uint256,address)",
      "arguments": [
        "5515",
        "0xBc2cfCd4c615Ff1d06f1d07b37E3652b15bd40A2"
      ],
      "transaction": {
        "from": "0x48CA32c738DC2Af6cE8bB33934fF1b59cF8B1831",
        "to": "0xe175053257B6A0Fe7EAE537499Ba4465065DdD88",
        "gas": "0xaa91",
        "value": "0x0",
        "input": "0x74d58c78000000000000000000000000000000000000000000000000000000000000158b000000000000000000000000bc2cfcd4c615ff1d06f1d07b37e3652b15bd40a2",
        "nonce": "0x49",
        "chainId": "0x14a34"
      },
      "additionalContracts": [],
      "isFixedGasLimit": false
    }
  ],
  "receipts": [
    {
      "status": "0x1",
      "cumulativeGasUsed": "0x7800f",
      "logs": [],
      "logsBloom": "0x00000000000000000000000000000000000000000000000000000000000000000000000000000000000000000000000000000000000000000000000000000000000000000000000000000000000000000000000000000000000000000000000000000000000000000000000000000000000000000000000000000000000000000000000000000000000000000000000000000000000000000000000000000000000000000000000000000000000000000000000000000000000000000000000000000000000000000000000000000000000000000000000000000000000000000000000000000000000000000000000000000000000000000000000000000000",
      "type": "0x2",
      "transactionHash": "0xef4efda06da12ebfb2ea4fb73adf5fa3fff234bc1807feea6fac3c2f4ff6176c",
      "transactionIndex": "0xa",
      "blockHash": "0xe7c660172e676794cc1fd409d813f6d5d27ed60a007c7bda26ea53d58eca26c9",
      "blockNumber": "0x107705c",
      "gasUsed": "0x7b7e",
      "effectiveGasPrice": "0xf447c",
      "from": "0x48CA32c738DC2Af6cE8bB33934fF1b59cF8B1831",
      "to": "0xe175053257B6A0Fe7EAE537499Ba4465065DdD88",
      "contractAddress": null,
      "l1BaseFeeScalar": "0x44d",
      "l1BlobBaseFee": "0x1",
      "l1BlobBaseFeeScalar": "0xa118b",
      "l1Fee": "0x1bb4ff797",
      "l1GasPrice": "0xfba73b7d",
      "l1GasUsed": "0x640"
    },
    {
      "status": "0x1",
      "cumulativeGasUsed": "0x7fb8d",
      "logs": [],
      "logsBloom": "0x00000000000000000000000000000000000000000000000000000000000000000000000000000000000000000000000000000000000000000000000000000000000000000000000000000000000000000000000000000000000000000000000000000000000000000000000000000000000000000000000000000000000000000000000000000000000000000000000000000000000000000000000000000000000000000000000000000000000000000000000000000000000000000000000000000000000000000000000000000000000000000000000000000000000000000000000000000000000000000000000000000000000000000000000000000000",
      "type": "0x2",
      "transactionHash": "0x22ea6a4ed5ae8b23c6b3650fc26e427c22fc19f440da899d3872e25ebb27aafe",
      "transactionIndex": "0xb",
      "blockHash": "0xe7c660172e676794cc1fd409d813f6d5d27ed60a007c7bda26ea53d58eca26c9",
      "blockNumber": "0x107705c",
      "gasUsed": "0x7b7e",
      "effectiveGasPrice": "0xf447c",
      "from": "0x48CA32c738DC2Af6cE8bB33934fF1b59cF8B1831",
      "to": "0xe175053257B6A0Fe7EAE537499Ba4465065DdD88",
      "contractAddress": null,
      "l1BaseFeeScalar": "0x44d",
      "l1BlobBaseFee": "0x1",
      "l1BlobBaseFeeScalar": "0xa118b",
      "l1Fee": "0x1bb4ff797",
      "l1GasPrice": "0xfba73b7d",
      "l1GasUsed": "0x640"
    },
    {
      "status": "0x1",
      "cumulativeGasUsed": "0x92c59",
      "logs": [],
      "logsBloom": "0x00000000000000000000000000000000000000000000000000000000000000000000000000000000000000000000000000000000000000000000000000000000000000000000000000000000000000000000000000000000000000000000000000000000000000000000000000000000000000000000000000000000000000000000000000000000000000000000000000000000000000000000000000000000000000000000000000000000000000000000000000000000000000000000000000000000000000000000000000000000000000000000000000000000000000000000000000000000000000000000000000000000000000000000000000000000",
      "type": "0x2",
      "transactionHash": "0xabcb340d428d05fe06ae5830402eeb7e444d10a6875ffab88f0b16e4b1415298",
      "transactionIndex": "0xd",
      "blockHash": "0xe7c660172e676794cc1fd409d813f6d5d27ed60a007c7bda26ea53d58eca26c9",
      "blockNumber": "0x107705c",
      "gasUsed": "0x7b7e",
      "effectiveGasPrice": "0xf447c",
      "from": "0x48CA32c738DC2Af6cE8bB33934fF1b59cF8B1831",
      "to": "0xe175053257B6A0Fe7EAE537499Ba4465065DdD88",
      "contractAddress": null,
      "l1BaseFeeScalar": "0x44d",
      "l1BlobBaseFee": "0x1",
      "l1BlobBaseFeeScalar": "0xa118b",
      "l1Fee": "0x1bb4ff797",
      "l1GasPrice": "0xfba73b7d",
      "l1GasUsed": "0x640"
    }
  ],
  "libraries": [],
  "pending": [],
  "returns": {},
  "timestamp": 1730297757,
  "chain": 84532,
  "commit": "7a04521"
}