{
  "transactions": [
    {
      "hash": "0xa7feaf5ff3c556c587ced37471534d49b6fcc38f53167948ca2313e1aaa56a85",
      "transactionType": "CALL",
      "contractName": null,
      "contractAddress": "0xe175053257B6A0Fe7EAE537499Ba4465065DdD88",
      "function": "updateProgramSigner(uint256,address)",
      "arguments": [
        "3756",
        "0x048E94a829f6E464aA2B0d3aB21855bF915a7E2C"
      ],
      "transaction": {
        "from": "0x48CA32c738DC2Af6cE8bB33934fF1b59cF8B1831",
        "to": "0xe175053257B6A0Fe7EAE537499Ba4465065DdD88",
        "gas": "0xaa91",
        "value": "0x0",
        "input": "0x74d58c780000000000000000000000000000000000000000000000000000000000000eac000000000000000000000000048e94a829f6e464aa2b0d3ab21855bf915a7e2c",
        "nonce": "0x43",
        "chainId": "0x14a34"
      },
      "additionalContracts": [],
      "isFixedGasLimit": false
    },
    {
      "hash": "0xc787f025351adb6307436d21eeca81940812c36a36c1074df595d5c189cecfe1",
      "transactionType": "CALL",
      "contractName": null,
      "contractAddress": "0xe175053257B6A0Fe7EAE537499Ba4465065DdD88",
      "function": "updateProgramSigner(uint256,address)",
      "arguments": [
        "5514",
        "0x048E94a829f6E464aA2B0d3aB21855bF915a7E2C"
      ],
      "transaction": {
        "from": "0x48CA32c738DC2Af6cE8bB33934fF1b59cF8B1831",
        "to": "0xe175053257B6A0Fe7EAE537499Ba4465065DdD88",
        "gas": "0xaa91",
        "value": "0x0",
        "input": "0x74d58c78000000000000000000000000000000000000000000000000000000000000158a000000000000000000000000048e94a829f6e464aa2b0d3ab21855bf915a7e2c",
        "nonce": "0x44",
        "chainId": "0x14a34"
      },
      "additionalContracts": [],
      "isFixedGasLimit": false
    },
    {
      "hash": "0x641771d28c9362613816b93f4a6f8d1342e9f557ff719d1e0ac29a785a0fec52",
      "transactionType": "CALL",
      "contractName": null,
      "contractAddress": "0xe175053257B6A0Fe7EAE537499Ba4465065DdD88",
      "function": "updateProgramSigner(uint256,address)",
      "arguments": [
        "5515",
        "0x048E94a829f6E464aA2B0d3aB21855bF915a7E2C"
      ],
      "transaction": {
        "from": "0x48CA32c738DC2Af6cE8bB33934fF1b59cF8B1831",
        "to": "0xe175053257B6A0Fe7EAE537499Ba4465065DdD88",
        "gas": "0xaa91",
        "value": "0x0",
        "input": "0x74d58c78000000000000000000000000000000000000000000000000000000000000158b000000000000000000000000048e94a829f6e464aa2b0d3ab21855bf915a7e2c",
        "nonce": "0x45",
        "chainId": "0x14a34"
      },
      "additionalContracts": [],
      "isFixedGasLimit": false
    }
  ],
  "receipts": [
    {
      "status": "0x1",
      "cumulativeGasUsed": "0x1c3418",
      "logs": [],
      "logsBloom": "0x00000000000000000000000000000000000000000000000000000000000000000000000000000000000000000000000000000000000000000000000000000000000000000000000000000000000000000000000000000000000000000000000000000000000000000000000000000000000000000000000000000000000000000000000000000000000000000000000000000000000000000000000000000000000000000000000000000000000000000000000000000000000000000000000000000000000000000000000000000000000000000000000000000000000000000000000000000000000000000000000000000000000000000000000000000000",
      "type": "0x2",
      "transactionHash": "0xa7feaf5ff3c556c587ced37471534d49b6fcc38f53167948ca2313e1aaa56a85",
      "transactionIndex": "0xd",
      "blockHash": "0x9924f31ac81110f35537a9958535a87436830cad3db1a4bf49ef51b386d0eea6",
      "blockNumber": "0x1076973",
      "gasUsed": "0x7b7e",
      "effectiveGasPrice": "0xf448a",
      "from": "0x48CA32c738DC2Af6cE8bB33934fF1b59cF8B1831",
      "to": "0xe175053257B6A0Fe7EAE537499Ba4465065DdD88",
      "contractAddress": null,
      "l1BaseFeeScalar": "0x44d",
      "l1BlobBaseFee": "0x1",
      "l1BlobBaseFeeScalar": "0xa118b",
      "l1Fee": "0xee2cd81c",
      "l1GasPrice": "0x873431fd",
      "l1GasUsed": "0x640"
    },
    {
      "status": "0x1",
      "cumulativeGasUsed": "0x1caf96",
      "logs": [],
      "logsBloom": "0x00000000000000000000000000000000000000000000000000000000000000000000000000000000000000000000000000000000000000000000000000000000000000000000000000000000000000000000000000000000000000000000000000000000000000000000000000000000000000000000000000000000000000000000000000000000000000000000000000000000000000000000000000000000000000000000000000000000000000000000000000000000000000000000000000000000000000000000000000000000000000000000000000000000000000000000000000000000000000000000000000000000000000000000000000000000",
      "type": "0x2",
      "transactionHash": "0xc787f025351adb6307436d21eeca81940812c36a36c1074df595d5c189cecfe1",
      "transactionIndex": "0xe",
      "blockHash": "0x9924f31ac81110f35537a9958535a87436830cad3db1a4bf49ef51b386d0eea6",
      "blockNumber": "0x1076973",
      "gasUsed": "0x7b7e",
      "effectiveGasPrice": "0xf448a",
      "from": "0x48CA32c738DC2Af6cE8bB33934fF1b59cF8B1831",
      "to": "0xe175053257B6A0Fe7EAE537499Ba4465065DdD88",
      "contractAddress": null,
      "l1BaseFeeScalar": "0x44d",
      "l1BlobBaseFee": "0x1",
      "l1BlobBaseFeeScalar": "0xa118b",
      "l1Fee": "0xee2cd81c",
      "l1GasPrice": "0x873431fd",
      "l1GasUsed": "0x640"
    },
    {
      "status": "0x1",
      "cumulativeGasUsed": "0x1d2b14",
      "logs": [],
      "logsBloom": "0x00000000000000000000000000000000000000000000000000000000000000000000000000000000000000000000000000000000000000000000000000000000000000000000000000000000000000000000000000000000000000000000000000000000000000000000000000000000000000000000000000000000000000000000000000000000000000000000000000000000000000000000000000000000000000000000000000000000000000000000000000000000000000000000000000000000000000000000000000000000000000000000000000000000000000000000000000000000000000000000000000000000000000000000000000000000",
      "type": "0x2",
      "transactionHash": "0x641771d28c9362613816b93f4a6f8d1342e9f557ff719d1e0ac29a785a0fec52",
      "transactionIndex": "0xf",
      "blockHash": "0x9924f31ac81110f35537a9958535a87436830cad3db1a4bf49ef51b386d0eea6",
      "blockNumber": "0x1076973",
      "gasUsed": "0x7b7e",
      "effectiveGasPrice": "0xf448a",
      "from": "0x48CA32c738DC2Af6cE8bB33934fF1b59cF8B1831",
      "to": "0xe175053257B6A0Fe7EAE537499Ba4465065DdD88",
      "contractAddress": null,
      "l1BaseFeeScalar": "0x44d",
      "l1BlobBaseFee": "0x1",
      "l1BlobBaseFeeScalar": "0xa118b",
      "l1Fee": "0xee2cd81c",
      "l1GasPrice": "0x873431fd",
      "l1GasUsed": "0x640"
    }
  ],
  "libraries": [],
  "pending": [],
  "returns": {},
  "timestamp": 1730294220,
  "chain": 84532,
  "commit": "7a04521"
}